{
  "contractName": "GovernanceToken",
  "abi": [
    {
      "inputs": [],
      "stateMutability": "nonpayable",
      "type": "constructor"
    },
    {
      "anonymous": false,
      "inputs": [
        {
          "indexed": true,
          "internalType": "address",
          "name": "owner",
          "type": "address"
        },
        {
          "indexed": true,
          "internalType": "address",
          "name": "spender",
          "type": "address"
        },
        {
          "indexed": false,
          "internalType": "uint256",
          "name": "value",
          "type": "uint256"
        }
      ],
      "name": "Approval",
      "type": "event"
    },
    {
      "anonymous": false,
      "inputs": [
        {
          "indexed": true,
          "internalType": "address",
          "name": "delegator",
          "type": "address"
        },
        {
          "indexed": true,
          "internalType": "address",
          "name": "fromDelegate",
          "type": "address"
        },
        {
          "indexed": true,
          "internalType": "address",
          "name": "toDelegate",
          "type": "address"
        }
      ],
      "name": "DelegateChanged",
      "type": "event"
    },
    {
      "anonymous": false,
      "inputs": [
        {
          "indexed": true,
          "internalType": "address",
          "name": "delegate",
          "type": "address"
        },
        {
          "indexed": false,
          "internalType": "uint256",
          "name": "previousBalance",
          "type": "uint256"
        },
        {
          "indexed": false,
          "internalType": "uint256",
          "name": "newBalance",
          "type": "uint256"
        }
      ],
      "name": "DelegateVotesChanged",
      "type": "event"
    },
    {
      "anonymous": false,
      "inputs": [
        {
          "indexed": true,
          "internalType": "address",
          "name": "from",
          "type": "address"
        },
        {
          "indexed": true,
          "internalType": "address",
          "name": "to",
          "type": "address"
        },
        {
          "indexed": false,
          "internalType": "uint256",
          "name": "value",
          "type": "uint256"
        }
      ],
      "name": "Transfer",
      "type": "event"
    },
    {
      "inputs": [],
      "name": "DOMAIN_SEPARATOR",
      "outputs": [
        {
          "internalType": "bytes32",
          "name": "",
          "type": "bytes32"
        }
      ],
      "stateMutability": "view",
      "type": "function",
      "constant": true
    },
    {
      "inputs": [
        {
          "internalType": "address",
          "name": "owner",
          "type": "address"
        },
        {
          "internalType": "address",
          "name": "spender",
          "type": "address"
        }
      ],
      "name": "allowance",
      "outputs": [
        {
          "internalType": "uint256",
          "name": "",
          "type": "uint256"
        }
      ],
      "stateMutability": "view",
      "type": "function",
      "constant": true
    },
    {
      "inputs": [
        {
          "internalType": "address",
          "name": "spender",
          "type": "address"
        },
        {
          "internalType": "uint256",
          "name": "amount",
          "type": "uint256"
        }
      ],
      "name": "approve",
      "outputs": [
        {
          "internalType": "bool",
          "name": "",
          "type": "bool"
        }
      ],
      "stateMutability": "nonpayable",
      "type": "function"
    },
    {
      "inputs": [
        {
          "internalType": "address",
          "name": "account",
          "type": "address"
        }
      ],
      "name": "balanceOf",
      "outputs": [
        {
          "internalType": "uint256",
          "name": "",
          "type": "uint256"
        }
      ],
      "stateMutability": "view",
      "type": "function",
      "constant": true
    },
    {
      "inputs": [
        {
          "internalType": "address",
          "name": "account",
          "type": "address"
        },
        {
          "internalType": "uint32",
          "name": "pos",
          "type": "uint32"
        }
      ],
      "name": "checkpoints",
      "outputs": [
        {
          "components": [
            {
              "internalType": "uint32",
              "name": "fromBlock",
              "type": "uint32"
            },
            {
              "internalType": "uint224",
              "name": "votes",
              "type": "uint224"
            }
          ],
          "internalType": "struct ERC20Votes.Checkpoint",
          "name": "",
          "type": "tuple"
        }
      ],
      "stateMutability": "view",
      "type": "function",
      "constant": true
    },
    {
      "inputs": [],
      "name": "decimals",
      "outputs": [
        {
          "internalType": "uint8",
          "name": "",
          "type": "uint8"
        }
      ],
      "stateMutability": "view",
      "type": "function",
      "constant": true
    },
    {
      "inputs": [
        {
          "internalType": "address",
          "name": "spender",
          "type": "address"
        },
        {
          "internalType": "uint256",
          "name": "subtractedValue",
          "type": "uint256"
        }
      ],
      "name": "decreaseAllowance",
      "outputs": [
        {
          "internalType": "bool",
          "name": "",
          "type": "bool"
        }
      ],
      "stateMutability": "nonpayable",
      "type": "function"
    },
    {
      "inputs": [
        {
          "internalType": "address",
          "name": "delegatee",
          "type": "address"
        }
      ],
      "name": "delegate",
      "outputs": [],
      "stateMutability": "nonpayable",
      "type": "function"
    },
    {
      "inputs": [
        {
          "internalType": "address",
          "name": "delegatee",
          "type": "address"
        },
        {
          "internalType": "uint256",
          "name": "nonce",
          "type": "uint256"
        },
        {
          "internalType": "uint256",
          "name": "expiry",
          "type": "uint256"
        },
        {
          "internalType": "uint8",
          "name": "v",
          "type": "uint8"
        },
        {
          "internalType": "bytes32",
          "name": "r",
          "type": "bytes32"
        },
        {
          "internalType": "bytes32",
          "name": "s",
          "type": "bytes32"
        }
      ],
      "name": "delegateBySig",
      "outputs": [],
      "stateMutability": "nonpayable",
      "type": "function"
    },
    {
      "inputs": [
        {
          "internalType": "address",
          "name": "account",
          "type": "address"
        }
      ],
      "name": "delegates",
      "outputs": [
        {
          "internalType": "address",
          "name": "",
          "type": "address"
        }
      ],
      "stateMutability": "view",
      "type": "function",
      "constant": true
    },
    {
      "inputs": [
        {
          "internalType": "uint256",
          "name": "blockNumber",
          "type": "uint256"
        }
      ],
      "name": "getPastTotalSupply",
      "outputs": [
        {
          "internalType": "uint256",
          "name": "",
          "type": "uint256"
        }
      ],
      "stateMutability": "view",
      "type": "function",
      "constant": true
    },
    {
      "inputs": [
        {
          "internalType": "address",
          "name": "account",
          "type": "address"
        },
        {
          "internalType": "uint256",
          "name": "blockNumber",
          "type": "uint256"
        }
      ],
      "name": "getPastVotes",
      "outputs": [
        {
          "internalType": "uint256",
          "name": "",
          "type": "uint256"
        }
      ],
      "stateMutability": "view",
      "type": "function",
      "constant": true
    },
    {
      "inputs": [
        {
          "internalType": "address",
          "name": "account",
          "type": "address"
        }
      ],
      "name": "getVotes",
      "outputs": [
        {
          "internalType": "uint256",
          "name": "",
          "type": "uint256"
        }
      ],
      "stateMutability": "view",
      "type": "function",
      "constant": true
    },
    {
      "inputs": [
        {
          "internalType": "address",
          "name": "spender",
          "type": "address"
        },
        {
          "internalType": "uint256",
          "name": "addedValue",
          "type": "uint256"
        }
      ],
      "name": "increaseAllowance",
      "outputs": [
        {
          "internalType": "bool",
          "name": "",
          "type": "bool"
        }
      ],
      "stateMutability": "nonpayable",
      "type": "function"
    },
    {
      "inputs": [],
      "name": "name",
      "outputs": [
        {
          "internalType": "string",
          "name": "",
          "type": "string"
        }
      ],
      "stateMutability": "view",
      "type": "function",
      "constant": true
    },
    {
      "inputs": [
        {
          "internalType": "address",
          "name": "owner",
          "type": "address"
        }
      ],
      "name": "nonces",
      "outputs": [
        {
          "internalType": "uint256",
          "name": "",
          "type": "uint256"
        }
      ],
      "stateMutability": "view",
      "type": "function",
      "constant": true
    },
    {
      "inputs": [
        {
          "internalType": "address",
          "name": "account",
          "type": "address"
        }
      ],
      "name": "numCheckpoints",
      "outputs": [
        {
          "internalType": "uint32",
          "name": "",
          "type": "uint32"
        }
      ],
      "stateMutability": "view",
      "type": "function",
      "constant": true
    },
    {
      "inputs": [
        {
          "internalType": "address",
          "name": "owner",
          "type": "address"
        },
        {
          "internalType": "address",
          "name": "spender",
          "type": "address"
        },
        {
          "internalType": "uint256",
          "name": "value",
          "type": "uint256"
        },
        {
          "internalType": "uint256",
          "name": "deadline",
          "type": "uint256"
        },
        {
          "internalType": "uint8",
          "name": "v",
          "type": "uint8"
        },
        {
          "internalType": "bytes32",
          "name": "r",
          "type": "bytes32"
        },
        {
          "internalType": "bytes32",
          "name": "s",
          "type": "bytes32"
        }
      ],
      "name": "permit",
      "outputs": [],
      "stateMutability": "nonpayable",
      "type": "function"
    },
    {
      "inputs": [],
      "name": "s_maxSupply",
      "outputs": [
        {
          "internalType": "uint256",
          "name": "",
          "type": "uint256"
        }
      ],
      "stateMutability": "view",
      "type": "function",
      "constant": true
    },
    {
      "inputs": [],
      "name": "symbol",
      "outputs": [
        {
          "internalType": "string",
          "name": "",
          "type": "string"
        }
      ],
      "stateMutability": "view",
      "type": "function",
      "constant": true
    },
    {
      "inputs": [],
      "name": "totalSupply",
      "outputs": [
        {
          "internalType": "uint256",
          "name": "",
          "type": "uint256"
        }
      ],
      "stateMutability": "view",
      "type": "function",
      "constant": true
    },
    {
      "inputs": [
        {
          "internalType": "address",
          "name": "recipient",
          "type": "address"
        },
        {
          "internalType": "uint256",
          "name": "amount",
          "type": "uint256"
        }
      ],
      "name": "transfer",
      "outputs": [
        {
          "internalType": "bool",
          "name": "",
          "type": "bool"
        }
      ],
      "stateMutability": "nonpayable",
      "type": "function"
    },
    {
      "inputs": [
        {
          "internalType": "address",
          "name": "sender",
          "type": "address"
        },
        {
          "internalType": "address",
          "name": "recipient",
          "type": "address"
        },
        {
          "internalType": "uint256",
          "name": "amount",
          "type": "uint256"
        }
      ],
      "name": "transferFrom",
      "outputs": [
        {
          "internalType": "bool",
          "name": "",
          "type": "bool"
        }
      ],
      "stateMutability": "nonpayable",
      "type": "function"
    }
  ],
  "bytecode": "0x6101406040527f6e71edae12b1b97f4d1f60370fef10105fa2faae0126114a169c64845d6126c96101205266038d7ea4c680006009553480156200004257600080fd5b506040518060400160405280600f81526020016e23b7bb32b93730b731b2aa37b5b2b760891b81525080604051806040016040528060018152602001603160f81b81525060405180604001604052806005815260200164125b91125160da1b815250604051806040016040528060048152602001631251125160e21b8152508160039080519060200190620000d992919062000790565b508051620000ef90600490602084019062000790565b5050825160209384012082519284019290922060c083815260e08290524660a0818152604080517f8b73c3c69bb8fe3d512ecc4cf759cc79239f7b179b0ffacaa9a75d522b39400f818a018190528183019890985260608101959095526080808601939093523085830152805180860390920182529390920190925280519401939093209092526101005250506009546200018c90339062000192565b620008ca565b620001a98282620001ad60201b62000a441760201c565b5050565b620001c482826200026460201b62000ad41760201c565b6001600160e01b03620001d8620003538216565b1115620002455760405162461bcd60e51b815260206004820152603060248201527f4552433230566f7465733a20746f74616c20737570706c79207269736b73206f60448201526f766572666c6f77696e6720766f74657360801b60648201526084015b60405180910390fd5b6200025e600862000bbf6200035960201b17836200036e565b50505050565b6001600160a01b038216620002bc5760405162461bcd60e51b815260206004820152601f60248201527f45524332303a206d696e7420746f20746865207a65726f20616464726573730060448201526064016200023c565b8060026000828254620002d091906200082c565b90915550506001600160a01b03821660009081526020819052604081208054839290620002ff9084906200082c565b90915550506040518181526001600160a01b038316906000907fddf252ad1be2c89b69c2b068fc378daa952ba7f163c4a11628f55a4df523b3ef9060200160405180910390a3620001a96000838362000525565b60025490565b60006200036782846200082c565b9392505050565b825460009081908015620003c057856200038a60018362000847565b815481106200039d576200039d620008b4565b60009182526020909120015464010000000090046001600160e01b0316620003c3565b60005b6001600160e01b03169250620003da83858760201c565b91506000811180156200041e57504386620003f760018462000847565b815481106200040a576200040a620008b4565b60009182526020909120015463ffffffff16145b1562000492576200043a826200053d60201b62000bcb1760201c565b866200044860018462000847565b815481106200045b576200045b620008b4565b9060005260206000200160000160046101000a8154816001600160e01b0302191690836001600160e01b0316021790555062000517565b856040518060400160405280620004b443620005ac60201b62000c381760201c565b63ffffffff168152602001620004d5856200053d60201b62000bcb1760201c565b6001600160e01b0390811690915282546001810184556000938452602093849020835194909301519091166401000000000263ffffffff909316929092179101555b50935093915050565b505050565b620005208383836200061360201b62000c9d1760201c565b60006001600160e01b03821115620005a85760405162461bcd60e51b815260206004820152602760248201527f53616665436173743a2076616c756520646f65736e27742066697420696e20326044820152663234206269747360c81b60648201526084016200023c565b5090565b600063ffffffff821115620005a85760405162461bcd60e51b815260206004820152602660248201527f53616665436173743a2076616c756520646f65736e27742066697420696e203360448201526532206269747360d01b60648201526084016200023c565b6200062b8383836200052060201b62000cb81760201c565b6001600160a01b0383811660009081526006602052604080822054858416835291205462000520929182169116838183148015906200066a5750600081115b1562000520576001600160a01b03831615620006f7576001600160a01b038316600090815260076020908152604082208291620006b4919062000782901b62000cbd17856200036e565b91509150846001600160a01b0316600080516020620024a18339815191528383604051620006ec929190918252602082015260400190565b60405180910390a250505b6001600160a01b0382161562000520576001600160a01b0382166000908152600760209081526040822082916200073b919062000359901b62000bbf17856200036e565b91509150836001600160a01b0316600080516020620024a1833981519152838360405162000773929190918252602082015260400190565b60405180910390a25050505050565b600062000367828462000847565b8280546200079e9062000861565b90600052602060002090601f016020900481019282620007c257600085556200080d565b82601f10620007dd57805160ff19168380011785556200080d565b828001600101855582156200080d579182015b828111156200080d578251825591602001919060010190620007f0565b50620005a89291505b80821115620005a8576000815560010162000816565b600082198211156200084257620008426200089e565b500190565b6000828210156200085c576200085c6200089e565b500390565b600181811c908216806200087657607f821691505b602082108114156200089857634e487b7160e01b600052602260045260246000fd5b50919050565b634e487b7160e01b600052601160045260246000fd5b634e487b7160e01b600052603260045260246000fd5b60805160a05160c05160e0516101005161012051611b876200091a60003960006108b101526000611017015260006110660152600061104101526000610fc501526000610fee0152611b876000f3fe608060405234801561001057600080fd5b506004361061011d5760003560e01c806306fdde0314610122578063095ea7b31461014057806318160ddd1461016357806323b872dd14610175578063313ce567146101885780633644e51514610197578063395093511461019f5780633a46b1a8146101b2578063587cde1e146101c55780635c19a95c146101f05780635d641847146102055780636fcfff451461020e57806370a08231146102365780637ecebe00146102495780638e539e8c1461025c57806395d89b411461026f5780639ab24eb014610277578063a457c2d71461028a578063a9059cbb1461029d578063c3cda520146102b0578063d505accf146102c3578063dd62ed3e146102d6578063f1127ed81461030f575b600080fd5b61012a61034c565b60405161013791906119fd565b60405180910390f35b61015361014e366004611922565b6103de565b6040519015158152602001610137565b6002545b604051908152602001610137565b61015361018336600461187c565b6103f4565b60405160128152602001610137565b6101676104a3565b6101536101ad366004611922565b6104b2565b6101676101c0366004611922565b6104ee565b6101d86101d336600461182e565b610538565b6040516001600160a01b039091168152602001610137565b6102036101fe36600461182e565b610556565b005b61016760095481565b61022161021c36600461182e565b610563565b60405163ffffffff9091168152602001610137565b61016761024436600461182e565b61058b565b61016761025736600461182e565b6105a6565b61016761026a3660046119e4565b6105c4565b61012a6105f0565b61016761028536600461182e565b6105ff565b610153610298366004611922565b610685565b6101536102ab366004611922565b61071e565b6102036102be36600461194c565b61072b565b6102036102d13660046118b8565b61085d565b6101676102e4366004611849565b6001600160a01b03918216600090815260016020908152604080832093909416825291909152205490565b61032261031d3660046119a4565b6109c1565b60408051825163ffffffff1681526020928301516001600160e01b03169281019290925201610137565b60606003805461035b90611ada565b80601f016020809104026020016040519081016040528092919081815260200182805461038790611ada565b80156103d45780601f106103a9576101008083540402835291602001916103d4565b820191906000526020600020905b8154815290600101906020018083116103b757829003601f168201915b5050505050905090565b60006103eb338484610cc9565b50600192915050565b6000610401848484610ded565b6001600160a01b03841660009081526001602090815260408083203384529091529020548281101561048b5760405162461bcd60e51b815260206004820152602860248201527f45524332303a207472616e7366657220616d6f756e74206578636565647320616044820152676c6c6f77616e636560c01b60648201526084015b60405180910390fd5b6104988533858403610cc9565b506001949350505050565b60006104ad610fc1565b905090565b3360008181526001602090815260408083206001600160a01b038716845290915281205490916103eb9185906104e9908690611a89565b610cc9565b600043821061050f5760405162461bcd60e51b815260040161048290611a52565b6001600160a01b038316600090815260076020526040902061053190836110b4565b9392505050565b6001600160a01b039081166000908152600660205260409020541690565b6105603382611170565b50565b6001600160a01b03811660009081526007602052604081205461058590610c38565b92915050565b6001600160a01b031660009081526020819052604090205490565b6001600160a01b038116600090815260056020526040812054610585565b60004382106105e55760405162461bcd60e51b815260040161048290611a52565b6105856008836110b4565b60606004805461035b90611ada565b6001600160a01b0381166000908152600760205260408120548015610672576001600160a01b0383166000908152600760205260409020610641600183611ac3565b8154811061065157610651611b3b565b600091825260209091200154600160201b90046001600160e01b0316610675565b60005b6001600160e01b03169392505050565b3360009081526001602090815260408083206001600160a01b0386168452909152812054828110156107075760405162461bcd60e51b815260206004820152602560248201527f45524332303a2064656372656173656420616c6c6f77616e63652062656c6f77604482015264207a65726f60d81b6064820152608401610482565b6107143385858403610cc9565b5060019392505050565b60006103eb338484610ded565b8342111561077b5760405162461bcd60e51b815260206004820152601d60248201527f4552433230566f7465733a207369676e617475726520657870697265640000006044820152606401610482565b604080517fe48329057bfd03d55e49b547132e39cffd9c1820ad7b9d4c5307691425d15adf60208201526001600160a01b0388169181019190915260608101869052608081018590526000906107f5906107ed9060a001604051602081830303815290604052805190602001206111f0565b85858561123e565b905061080081611266565b861461084a5760405162461bcd60e51b81526020600482015260196024820152784552433230566f7465733a20696e76616c6964206e6f6e636560381b6044820152606401610482565b6108548188611170565b50505050505050565b834211156108ad5760405162461bcd60e51b815260206004820152601d60248201527f45524332305065726d69743a206578706972656420646561646c696e650000006044820152606401610482565b60007f00000000000000000000000000000000000000000000000000000000000000008888886108dc8c611266565b6040805160208101969096526001600160a01b0394851690860152929091166060840152608083015260a082015260c0810186905260e0016040516020818303038152906040528051906020012090506000610937826111f0565b905060006109478287878761123e565b9050896001600160a01b0316816001600160a01b0316146109aa5760405162461bcd60e51b815260206004820152601e60248201527f45524332305065726d69743a20696e76616c6964207369676e617475726500006044820152606401610482565b6109b58a8a8a610cc9565b50505050505050505050565b60408051808201909152600080825260208201526001600160a01b0383166000908152600760205260409020805463ffffffff8416908110610a0557610a05611b3b565b60009182526020918290206040805180820190915291015463ffffffff81168252600160201b90046001600160e01b0316918101919091529392505050565b610a4e8282610ad4565b6002546001600160e01b031015610ac05760405162461bcd60e51b815260206004820152603060248201527f4552433230566f7465733a20746f74616c20737570706c79207269736b73206f60448201526f766572666c6f77696e6720766f74657360801b6064820152608401610482565b610ace6008610bbf8361128e565b50505050565b6001600160a01b038216610b2a5760405162461bcd60e51b815260206004820152601f60248201527f45524332303a206d696e7420746f20746865207a65726f2061646472657373006044820152606401610482565b8060026000828254610b3c9190611a89565b90915550506001600160a01b03821660009081526020819052604081208054839290610b69908490611a89565b90915550506040518181526001600160a01b038316906000907fddf252ad1be2c89b69c2b068fc378daa952ba7f163c4a11628f55a4df523b3ef9060200160405180910390a3610bbb60008383611405565b5050565b60006105318284611a89565b60006001600160e01b03821115610c345760405162461bcd60e51b815260206004820152602760248201527f53616665436173743a2076616c756520646f65736e27742066697420696e20326044820152663234206269747360c81b6064820152608401610482565b5090565b600063ffffffff821115610c345760405162461bcd60e51b815260206004820152602660248201527f53616665436173743a2076616c756520646f65736e27742066697420696e203360448201526532206269747360d01b6064820152608401610482565b610cb8610ca984610538565b610cb284610538565b83611410565b505050565b60006105318284611ac3565b6001600160a01b038316610d2b5760405162461bcd60e51b8152602060048201526024808201527f45524332303a20617070726f76652066726f6d20746865207a65726f206164646044820152637265737360e01b6064820152608401610482565b6001600160a01b038216610d8c5760405162461bcd60e51b815260206004820152602260248201527f45524332303a20617070726f766520746f20746865207a65726f206164647265604482015261737360f01b6064820152608401610482565b6001600160a01b0383811660008181526001602090815260408083209487168084529482529182902085905590518481527f8c5be1e5ebec7d5bd14f71427d1e84f3dd0314c0f7b2291e5b200ac8c7c3b925910160405180910390a3505050565b6001600160a01b038316610e515760405162461bcd60e51b815260206004820152602560248201527f45524332303a207472616e736665722066726f6d20746865207a65726f206164604482015264647265737360d81b6064820152608401610482565b6001600160a01b038216610eb35760405162461bcd60e51b815260206004820152602360248201527f45524332303a207472616e7366657220746f20746865207a65726f206164647260448201526265737360e81b6064820152608401610482565b6001600160a01b03831660009081526020819052604090205481811015610f2b5760405162461bcd60e51b815260206004820152602660248201527f45524332303a207472616e7366657220616d6f756e7420657863656564732062604482015265616c616e636560d01b6064820152608401610482565b6001600160a01b03808516600090815260208190526040808220858503905591851681529081208054849290610f62908490611a89565b92505081905550826001600160a01b0316846001600160a01b03167fddf252ad1be2c89b69c2b068fc378daa952ba7f163c4a11628f55a4df523b3ef84604051610fae91815260200190565b60405180910390a3610ace848484611405565b60007f000000000000000000000000000000000000000000000000000000000000000046141561101057507f000000000000000000000000000000000000000000000000000000000000000090565b50604080517f00000000000000000000000000000000000000000000000000000000000000006020808301919091527f0000000000000000000000000000000000000000000000000000000000000000828401527f000000000000000000000000000000000000000000000000000000000000000060608301524660808301523060a0808401919091528351808403909101815260c0909201909252805191012090565b8154600090815b818110156111185760006110cf828461154d565b9050848682815481106110e4576110e4611b3b565b60009182526020909120015463ffffffff16111561110457809250611112565b61110f816001611a89565b91505b506110bb565b811561115b578461112a600184611ac3565b8154811061113a5761113a611b3b565b600091825260209091200154600160201b90046001600160e01b031661115e565b60005b6001600160e01b031695945050505050565b600061117b83610538565b905060006111888461058b565b6001600160a01b0385811660008181526006602052604080822080546001600160a01b031916898616908117909155905194955093928616927f3134e8a2e6d97e929a7e54011ea5485d7d196dd5f0ba4d4ef95803e8e3fc257f9190a4610ace828483611410565b60006105856111fd610fc1565b8360405161190160f01b6020820152602281018390526042810182905260009060620160405160208183030381529060405280519060200120905092915050565b600080600061124f87878787611568565b9150915061125c8161164b565b5095945050505050565b6001600160a01b03811660009081526005602052604090208054600181018255905b50919050565b8254600090819080156112d857856112a7600183611ac3565b815481106112b7576112b7611b3b565b600091825260209091200154600160201b90046001600160e01b03166112db565b60005b6001600160e01b031692506112f483858763ffffffff16565b91506000811180156113325750438661130e600184611ac3565b8154811061131e5761131e611b3b565b60009182526020909120015463ffffffff16145b156113925761134082610bcb565b8661134c600184611ac3565b8154811061135c5761135c611b3b565b9060005260206000200160000160046101000a8154816001600160e01b0302191690836001600160e01b031602179055506113fc565b8560405180604001604052806113a743610c38565b63ffffffff1681526020016113bb85610bcb565b6001600160e01b039081169091528254600181018455600093845260209384902083519490930151909116600160201b0263ffffffff909316929092179101555b50935093915050565b610cb8838383610c9d565b816001600160a01b0316836001600160a01b0316141580156114325750600081115b15610cb8576001600160a01b038316156114c0576001600160a01b0383166000908152600760205260408120819061146d90610cbd8561128e565b91509150846001600160a01b03167fdec2bacdd2f05b59de34da9b523dff8be42e5e38e818c82fdb0bae774387a72483836040516114b5929190918252602082015260400190565b60405180910390a250505b6001600160a01b03821615610cb8576001600160a01b038216600090815260076020526040812081906114f690610bbf8561128e565b91509150836001600160a01b03167fdec2bacdd2f05b59de34da9b523dff8be42e5e38e818c82fdb0bae774387a724838360405161153e929190918252602082015260400190565b60405180910390a25050505050565b600061155c6002848418611aa1565b61053190848416611a89565b6000806fa2a8918ca85bafe22016d0b997e4df60600160ff1b038311156115955750600090506003611642565b8460ff16601b141580156115ad57508460ff16601c14155b156115be5750600090506004611642565b6040805160008082526020820180845289905260ff881692820192909252606081018690526080810185905260019060a0016020604051602081039080840390855afa158015611612573d6000803e3d6000fd5b5050604051601f1901519150506001600160a01b03811661163b57600060019250925050611642565b9150600090505b94509492505050565b600081600481111561165f5761165f611b25565b14156116685750565b600181600481111561167c5761167c611b25565b14156116c55760405162461bcd60e51b815260206004820152601860248201527745434453413a20696e76616c6964207369676e617475726560401b6044820152606401610482565b60028160048111156116d9576116d9611b25565b14156117275760405162461bcd60e51b815260206004820152601f60248201527f45434453413a20696e76616c6964207369676e6174757265206c656e677468006044820152606401610482565b600381600481111561173b5761173b611b25565b14156117945760405162461bcd60e51b815260206004820152602260248201527f45434453413a20696e76616c6964207369676e6174757265202773272076616c604482015261756560f01b6064820152608401610482565b60048160048111156117a8576117a8611b25565b14156105605760405162461bcd60e51b815260206004820152602260248201527f45434453413a20696e76616c6964207369676e6174757265202776272076616c604482015261756560f01b6064820152608401610482565b80356001600160a01b038116811461181857600080fd5b919050565b803560ff8116811461181857600080fd5b60006020828403121561184057600080fd5b61053182611801565b6000806040838503121561185c57600080fd5b61186583611801565b915061187360208401611801565b90509250929050565b60008060006060848603121561189157600080fd5b61189a84611801565b92506118a860208501611801565b9150604084013590509250925092565b600080600080600080600060e0888a0312156118d357600080fd5b6118dc88611801565b96506118ea60208901611801565b955060408801359450606088013593506119066080890161181d565b925060a0880135915060c0880135905092959891949750929550565b6000806040838503121561193557600080fd5b61193e83611801565b946020939093013593505050565b60008060008060008060c0878903121561196557600080fd5b61196e87611801565b9550602087013594506040870135935061198a6060880161181d565b92506080870135915060a087013590509295509295509295565b600080604083850312156119b757600080fd5b6119c083611801565b9150602083013563ffffffff811681146119d957600080fd5b809150509250929050565b6000602082840312156119f657600080fd5b5035919050565b600060208083528351808285015260005b81811015611a2a57858101830151858201604001528201611a0e565b81811115611a3c576000604083870101525b50601f01601f1916929092016040019392505050565b6020808252601f908201527f4552433230566f7465733a20626c6f636b206e6f7420796574206d696e656400604082015260600190565b60008219821115611a9c57611a9c611b0f565b500190565b600082611abe57634e487b7160e01b600052601260045260246000fd5b500490565b600082821015611ad557611ad5611b0f565b500390565b600181811c90821680611aee57607f821691505b6020821081141561128857634e487b7160e01b600052602260045260246000fd5b634e487b7160e01b600052601160045260246000fd5b634e487b7160e01b600052602160045260246000fd5b634e487b7160e01b600052603260045260246000fdfea264697066735822122081b2bd2f1614bd5e2c8c84bca2e2809f3c2c48f03de46c4b28524b3610cafc2564736f6c63430008070033dec2bacdd2f05b59de34da9b523dff8be42e5e38e818c82fdb0bae774387a724",
  "immutableReferences": {
    "5152": [
      {
        "length": 32,
        "start": 2225
      }
    ],
    "6512": [
      {
        "length": 32,
        "start": 4078
      }
    ],
    "6514": [
      {
        "length": 32,
        "start": 4037
      }
    ],
    "6516": [
      {
        "length": 32,
        "start": 4161
      }
    ],
    "6518": [
      {
        "length": 32,
        "start": 4198
      }
    ],
    "6520": [
      {
        "length": 32,
        "start": 4119
      }
    ]
  },
  "source": "// SPDX-License-Identifier: MIT\npragma solidity ^0.8.7;\n\nimport \"@openzeppelin/contracts/token/ERC20/ERC20.sol\";\nimport \"@openzeppelin/contracts/token/ERC20/extensions/draft-ERC20Permit.sol\";\nimport \"@openzeppelin/contracts/token/ERC20/extensions/ERC20Votes.sol\";\n\n\ncontract GovernanceToken is ERC20, ERC20Permit, ERC20Votes {\n  uint public s_maxSupply = 1000000000000000;\n  \n  constructor()\n    ERC20(\"InDID\", \"IDID\")\n    ERC20Permit(\"GovernanceToken\")\n    {\n      _mint(msg.sender, s_maxSupply);\n    }\n\n    function _afterTokenTransfer(address from, address to, uint256 amount)\n        internal\n        override(ERC20, ERC20Votes)\n    {\n        super._afterTokenTransfer(from, to, amount);\n    }\n\n    function _mint(address to, uint256 amount)\n        internal\n        override(ERC20, ERC20Votes)\n    {\n        super._mint(to, amount);\n    }\n\n    function _burn(address account, uint256 amount)\n        internal\n        override(ERC20, ERC20Votes)\n    {\n        super._burn(account, amount);\n    }\n\n\n}",
  "sourcePath": "C:\\learn\\ChainLink\\governance\\contracts\\GovernanceToken.sol",
  "compiler": {
    "name": "solc",
    "version": "0.8.7+commit.e28d00a7.Emscripten.clang"
  },
  "schemaVersion": "3.4.3",
  "updatedAt": "2021-11-13T21:47:46.742Z",
  "networkType": "ethereum",
  "devdoc": {
    "kind": "dev",
    "methods": {
      "DOMAIN_SEPARATOR()": {
        "details": "See {IERC20Permit-DOMAIN_SEPARATOR}."
      },
      "allowance(address,address)": {
        "details": "See {IERC20-allowance}."
      },
      "approve(address,uint256)": {
        "details": "See {IERC20-approve}. Requirements: - `spender` cannot be the zero address."
      },
      "balanceOf(address)": {
        "details": "See {IERC20-balanceOf}."
      },
      "checkpoints(address,uint32)": {
        "details": "Get the `pos`-th checkpoint for `account`."
      },
      "decimals()": {
        "details": "Returns the number of decimals used to get its user representation. For example, if `decimals` equals `2`, a balance of `505` tokens should be displayed to a user as `5.05` (`505 / 10 ** 2`). Tokens usually opt for a value of 18, imitating the relationship between Ether and Wei. This is the value {ERC20} uses, unless this function is overridden; NOTE: This information is only used for _display_ purposes: it in no way affects any of the arithmetic of the contract, including {IERC20-balanceOf} and {IERC20-transfer}."
      },
      "decreaseAllowance(address,uint256)": {
        "details": "Atomically decreases the allowance granted to `spender` by the caller. This is an alternative to {approve} that can be used as a mitigation for problems described in {IERC20-approve}. Emits an {Approval} event indicating the updated allowance. Requirements: - `spender` cannot be the zero address. - `spender` must have allowance for the caller of at least `subtractedValue`."
      },
      "delegate(address)": {
        "details": "Delegate votes from the sender to `delegatee`."
      },
      "delegateBySig(address,uint256,uint256,uint8,bytes32,bytes32)": {
        "details": "Delegates votes from signer to `delegatee`"
      },
      "delegates(address)": {
        "details": "Get the address `account` is currently delegating to."
      },
      "getPastTotalSupply(uint256)": {
        "details": "Retrieve the `totalSupply` at the end of `blockNumber`. Note, this value is the sum of all balances. It is but NOT the sum of all the delegated votes! Requirements: - `blockNumber` must have been already mined"
      },
      "getPastVotes(address,uint256)": {
        "details": "Retrieve the number of votes for `account` at the end of `blockNumber`. Requirements: - `blockNumber` must have been already mined"
      },
      "getVotes(address)": {
        "details": "Gets the current votes balance for `account`"
      },
      "increaseAllowance(address,uint256)": {
        "details": "Atomically increases the allowance granted to `spender` by the caller. This is an alternative to {approve} that can be used as a mitigation for problems described in {IERC20-approve}. Emits an {Approval} event indicating the updated allowance. Requirements: - `spender` cannot be the zero address."
      },
      "name()": {
        "details": "Returns the name of the token."
      },
      "nonces(address)": {
        "details": "See {IERC20Permit-nonces}."
      },
      "numCheckpoints(address)": {
        "details": "Get number of checkpoints for `account`."
      },
      "permit(address,address,uint256,uint256,uint8,bytes32,bytes32)": {
        "details": "See {IERC20Permit-permit}."
      },
      "symbol()": {
        "details": "Returns the symbol of the token, usually a shorter version of the name."
      },
      "totalSupply()": {
        "details": "See {IERC20-totalSupply}."
      },
      "transfer(address,uint256)": {
        "details": "See {IERC20-transfer}. Requirements: - `recipient` cannot be the zero address. - the caller must have a balance of at least `amount`."
      },
      "transferFrom(address,address,uint256)": {
        "details": "See {IERC20-transferFrom}. Emits an {Approval} event indicating the updated allowance. This is not required by the EIP. See the note at the beginning of {ERC20}. Requirements: - `sender` and `recipient` cannot be the zero address. - `sender` must have a balance of at least `amount`. - the caller must have allowance for ``sender``'s tokens of at least `amount`."
      }
    },
    "version": 1
  },
  "userdoc": {
    "kind": "user",
    "methods": {},
    "version": 1
  }
}