{
  "contractName": "MyTimeLock",
  "abi": [
    {
      "inputs": [
        {
          "internalType": "uint256",
          "name": "minDelay",
          "type": "uint256"
        },
        {
          "internalType": "address[]",
          "name": "proposers",
          "type": "address[]"
        },
        {
          "internalType": "address[]",
          "name": "executors",
          "type": "address[]"
        }
      ],
      "stateMutability": "nonpayable",
      "type": "constructor"
    },
    {
      "anonymous": false,
      "inputs": [
        {
          "indexed": true,
          "internalType": "bytes32",
          "name": "id",
          "type": "bytes32"
        },
        {
          "indexed": true,
          "internalType": "uint256",
          "name": "index",
          "type": "uint256"
        },
        {
          "indexed": false,
          "internalType": "address",
          "name": "target",
          "type": "address"
        },
        {
          "indexed": false,
          "internalType": "uint256",
          "name": "value",
          "type": "uint256"
        },
        {
          "indexed": false,
          "internalType": "bytes",
          "name": "data",
          "type": "bytes"
        }
      ],
      "name": "CallExecuted",
      "type": "event"
    },
    {
      "anonymous": false,
      "inputs": [
        {
          "indexed": true,
          "internalType": "bytes32",
          "name": "id",
          "type": "bytes32"
        },
        {
          "indexed": true,
          "internalType": "uint256",
          "name": "index",
          "type": "uint256"
        },
        {
          "indexed": false,
          "internalType": "address",
          "name": "target",
          "type": "address"
        },
        {
          "indexed": false,
          "internalType": "uint256",
          "name": "value",
          "type": "uint256"
        },
        {
          "indexed": false,
          "internalType": "bytes",
          "name": "data",
          "type": "bytes"
        },
        {
          "indexed": false,
          "internalType": "bytes32",
          "name": "predecessor",
          "type": "bytes32"
        },
        {
          "indexed": false,
          "internalType": "uint256",
          "name": "delay",
          "type": "uint256"
        }
      ],
      "name": "CallScheduled",
      "type": "event"
    },
    {
      "anonymous": false,
      "inputs": [
        {
          "indexed": true,
          "internalType": "bytes32",
          "name": "id",
          "type": "bytes32"
        }
      ],
      "name": "Cancelled",
      "type": "event"
    },
    {
      "anonymous": false,
      "inputs": [
        {
          "indexed": false,
          "internalType": "uint256",
          "name": "oldDuration",
          "type": "uint256"
        },
        {
          "indexed": false,
          "internalType": "uint256",
          "name": "newDuration",
          "type": "uint256"
        }
      ],
      "name": "MinDelayChange",
      "type": "event"
    },
    {
      "anonymous": false,
      "inputs": [
        {
          "indexed": true,
          "internalType": "bytes32",
          "name": "role",
          "type": "bytes32"
        },
        {
          "indexed": true,
          "internalType": "bytes32",
          "name": "previousAdminRole",
          "type": "bytes32"
        },
        {
          "indexed": true,
          "internalType": "bytes32",
          "name": "newAdminRole",
          "type": "bytes32"
        }
      ],
      "name": "RoleAdminChanged",
      "type": "event"
    },
    {
      "anonymous": false,
      "inputs": [
        {
          "indexed": true,
          "internalType": "bytes32",
          "name": "role",
          "type": "bytes32"
        },
        {
          "indexed": true,
          "internalType": "address",
          "name": "account",
          "type": "address"
        },
        {
          "indexed": true,
          "internalType": "address",
          "name": "sender",
          "type": "address"
        }
      ],
      "name": "RoleGranted",
      "type": "event"
    },
    {
      "anonymous": false,
      "inputs": [
        {
          "indexed": true,
          "internalType": "bytes32",
          "name": "role",
          "type": "bytes32"
        },
        {
          "indexed": true,
          "internalType": "address",
          "name": "account",
          "type": "address"
        },
        {
          "indexed": true,
          "internalType": "address",
          "name": "sender",
          "type": "address"
        }
      ],
      "name": "RoleRevoked",
      "type": "event"
    },
    {
      "inputs": [],
      "name": "DEFAULT_ADMIN_ROLE",
      "outputs": [
        {
          "internalType": "bytes32",
          "name": "",
          "type": "bytes32"
        }
      ],
      "stateMutability": "view",
      "type": "function",
      "constant": true
    },
    {
      "inputs": [],
      "name": "EXECUTOR_ROLE",
      "outputs": [
        {
          "internalType": "bytes32",
          "name": "",
          "type": "bytes32"
        }
      ],
      "stateMutability": "view",
      "type": "function",
      "constant": true
    },
    {
      "inputs": [],
      "name": "PROPOSER_ROLE",
      "outputs": [
        {
          "internalType": "bytes32",
          "name": "",
          "type": "bytes32"
        }
      ],
      "stateMutability": "view",
      "type": "function",
      "constant": true
    },
    {
      "inputs": [],
      "name": "TIMELOCK_ADMIN_ROLE",
      "outputs": [
        {
          "internalType": "bytes32",
          "name": "",
          "type": "bytes32"
        }
      ],
      "stateMutability": "view",
      "type": "function",
      "constant": true
    },
    {
      "inputs": [
        {
          "internalType": "bytes32",
          "name": "id",
          "type": "bytes32"
        }
      ],
      "name": "cancel",
      "outputs": [],
      "stateMutability": "nonpayable",
      "type": "function"
    },
    {
      "inputs": [
        {
          "internalType": "address",
          "name": "target",
          "type": "address"
        },
        {
          "internalType": "uint256",
          "name": "value",
          "type": "uint256"
        },
        {
          "internalType": "bytes",
          "name": "data",
          "type": "bytes"
        },
        {
          "internalType": "bytes32",
          "name": "predecessor",
          "type": "bytes32"
        },
        {
          "internalType": "bytes32",
          "name": "salt",
          "type": "bytes32"
        }
      ],
      "name": "execute",
      "outputs": [],
      "stateMutability": "payable",
      "type": "function",
      "payable": true
    },
    {
      "inputs": [
        {
          "internalType": "address[]",
          "name": "targets",
          "type": "address[]"
        },
        {
          "internalType": "uint256[]",
          "name": "values",
          "type": "uint256[]"
        },
        {
          "internalType": "bytes[]",
          "name": "datas",
          "type": "bytes[]"
        },
        {
          "internalType": "bytes32",
          "name": "predecessor",
          "type": "bytes32"
        },
        {
          "internalType": "bytes32",
          "name": "salt",
          "type": "bytes32"
        }
      ],
      "name": "executeBatch",
      "outputs": [],
      "stateMutability": "payable",
      "type": "function",
      "payable": true
    },
    {
      "inputs": [],
      "name": "getMinDelay",
      "outputs": [
        {
          "internalType": "uint256",
          "name": "duration",
          "type": "uint256"
        }
      ],
      "stateMutability": "view",
      "type": "function",
      "constant": true
    },
    {
      "inputs": [
        {
          "internalType": "bytes32",
          "name": "role",
          "type": "bytes32"
        }
      ],
      "name": "getRoleAdmin",
      "outputs": [
        {
          "internalType": "bytes32",
          "name": "",
          "type": "bytes32"
        }
      ],
      "stateMutability": "view",
      "type": "function",
      "constant": true
    },
    {
      "inputs": [
        {
          "internalType": "bytes32",
          "name": "id",
          "type": "bytes32"
        }
      ],
      "name": "getTimestamp",
      "outputs": [
        {
          "internalType": "uint256",
          "name": "timestamp",
          "type": "uint256"
        }
      ],
      "stateMutability": "view",
      "type": "function",
      "constant": true
    },
    {
      "inputs": [
        {
          "internalType": "bytes32",
          "name": "role",
          "type": "bytes32"
        },
        {
          "internalType": "address",
          "name": "account",
          "type": "address"
        }
      ],
      "name": "grantRole",
      "outputs": [],
      "stateMutability": "nonpayable",
      "type": "function"
    },
    {
      "inputs": [
        {
          "internalType": "bytes32",
          "name": "role",
          "type": "bytes32"
        },
        {
          "internalType": "address",
          "name": "account",
          "type": "address"
        }
      ],
      "name": "hasRole",
      "outputs": [
        {
          "internalType": "bool",
          "name": "",
          "type": "bool"
        }
      ],
      "stateMutability": "view",
      "type": "function",
      "constant": true
    },
    {
      "inputs": [
        {
          "internalType": "address",
          "name": "target",
          "type": "address"
        },
        {
          "internalType": "uint256",
          "name": "value",
          "type": "uint256"
        },
        {
          "internalType": "bytes",
          "name": "data",
          "type": "bytes"
        },
        {
          "internalType": "bytes32",
          "name": "predecessor",
          "type": "bytes32"
        },
        {
          "internalType": "bytes32",
          "name": "salt",
          "type": "bytes32"
        }
      ],
      "name": "hashOperation",
      "outputs": [
        {
          "internalType": "bytes32",
          "name": "hash",
          "type": "bytes32"
        }
      ],
      "stateMutability": "pure",
      "type": "function",
      "constant": true
    },
    {
      "inputs": [
        {
          "internalType": "address[]",
          "name": "targets",
          "type": "address[]"
        },
        {
          "internalType": "uint256[]",
          "name": "values",
          "type": "uint256[]"
        },
        {
          "internalType": "bytes[]",
          "name": "datas",
          "type": "bytes[]"
        },
        {
          "internalType": "bytes32",
          "name": "predecessor",
          "type": "bytes32"
        },
        {
          "internalType": "bytes32",
          "name": "salt",
          "type": "bytes32"
        }
      ],
      "name": "hashOperationBatch",
      "outputs": [
        {
          "internalType": "bytes32",
          "name": "hash",
          "type": "bytes32"
        }
      ],
      "stateMutability": "pure",
      "type": "function",
      "constant": true
    },
    {
      "inputs": [
        {
          "internalType": "bytes32",
          "name": "id",
          "type": "bytes32"
        }
      ],
      "name": "isOperation",
      "outputs": [
        {
          "internalType": "bool",
          "name": "pending",
          "type": "bool"
        }
      ],
      "stateMutability": "view",
      "type": "function",
      "constant": true
    },
    {
      "inputs": [
        {
          "internalType": "bytes32",
          "name": "id",
          "type": "bytes32"
        }
      ],
      "name": "isOperationDone",
      "outputs": [
        {
          "internalType": "bool",
          "name": "done",
          "type": "bool"
        }
      ],
      "stateMutability": "view",
      "type": "function",
      "constant": true
    },
    {
      "inputs": [
        {
          "internalType": "bytes32",
          "name": "id",
          "type": "bytes32"
        }
      ],
      "name": "isOperationPending",
      "outputs": [
        {
          "internalType": "bool",
          "name": "pending",
          "type": "bool"
        }
      ],
      "stateMutability": "view",
      "type": "function",
      "constant": true
    },
    {
      "inputs": [
        {
          "internalType": "bytes32",
          "name": "id",
          "type": "bytes32"
        }
      ],
      "name": "isOperationReady",
      "outputs": [
        {
          "internalType": "bool",
          "name": "ready",
          "type": "bool"
        }
      ],
      "stateMutability": "view",
      "type": "function",
      "constant": true
    },
    {
      "inputs": [
        {
          "internalType": "bytes32",
          "name": "role",
          "type": "bytes32"
        },
        {
          "internalType": "address",
          "name": "account",
          "type": "address"
        }
      ],
      "name": "renounceRole",
      "outputs": [],
      "stateMutability": "nonpayable",
      "type": "function"
    },
    {
      "inputs": [
        {
          "internalType": "bytes32",
          "name": "role",
          "type": "bytes32"
        },
        {
          "internalType": "address",
          "name": "account",
          "type": "address"
        }
      ],
      "name": "revokeRole",
      "outputs": [],
      "stateMutability": "nonpayable",
      "type": "function"
    },
    {
      "inputs": [
        {
          "internalType": "address",
          "name": "target",
          "type": "address"
        },
        {
          "internalType": "uint256",
          "name": "value",
          "type": "uint256"
        },
        {
          "internalType": "bytes",
          "name": "data",
          "type": "bytes"
        },
        {
          "internalType": "bytes32",
          "name": "predecessor",
          "type": "bytes32"
        },
        {
          "internalType": "bytes32",
          "name": "salt",
          "type": "bytes32"
        },
        {
          "internalType": "uint256",
          "name": "delay",
          "type": "uint256"
        }
      ],
      "name": "schedule",
      "outputs": [],
      "stateMutability": "nonpayable",
      "type": "function"
    },
    {
      "inputs": [
        {
          "internalType": "address[]",
          "name": "targets",
          "type": "address[]"
        },
        {
          "internalType": "uint256[]",
          "name": "values",
          "type": "uint256[]"
        },
        {
          "internalType": "bytes[]",
          "name": "datas",
          "type": "bytes[]"
        },
        {
          "internalType": "bytes32",
          "name": "predecessor",
          "type": "bytes32"
        },
        {
          "internalType": "bytes32",
          "name": "salt",
          "type": "bytes32"
        },
        {
          "internalType": "uint256",
          "name": "delay",
          "type": "uint256"
        }
      ],
      "name": "scheduleBatch",
      "outputs": [],
      "stateMutability": "nonpayable",
      "type": "function"
    },
    {
      "inputs": [
        {
          "internalType": "bytes4",
          "name": "interfaceId",
          "type": "bytes4"
        }
      ],
      "name": "supportsInterface",
      "outputs": [
        {
          "internalType": "bool",
          "name": "",
          "type": "bool"
        }
      ],
      "stateMutability": "view",
      "type": "function",
      "constant": true
    },
    {
      "inputs": [
        {
          "internalType": "uint256",
          "name": "newDelay",
          "type": "uint256"
        }
      ],
      "name": "updateDelay",
      "outputs": [],
      "stateMutability": "nonpayable",
      "type": "function"
    },
    {
      "stateMutability": "payable",
      "type": "receive",
      "payable": true
    }
  ],
  "bytecode": "0x60806040523480156200001157600080fd5b5060405162001dad38038062001dad83398101604081905262000034916200039a565b8282826200005260008051602062001d4d83398151915280620001cf565b6200007c60008051602062001d6d83398151915260008051602062001d4d833981519152620001cf565b620000a660008051602062001d8d83398151915260008051602062001d4d833981519152620001cf565b620000c160008051602062001d4d833981519152336200021a565b620000dc60008051602062001d4d833981519152306200021a565b60005b825181101562000139576200012660008051602062001d6d83398151915284838151811062000112576200011262000438565b60200260200101516200021a60201b60201c565b62000131816200040e565b9050620000df565b5060005b815181101562000183576200017060008051602062001d8d83398151915283838151811062000112576200011262000438565b6200017b816200040e565b90506200013d565b5060028390556040805160008152602081018590527f11c24f4ead16507c69ac467fbd5e4eed5fb5c699626d2cc6d66421df253886d5910160405180910390a150505050505062000464565b600082815260208190526040808220600101805490849055905190918391839186917fbd79b86ffe0ab8e8776151514217cd7cacd52c909f66475c3af44e129f0b00ff9190a4505050565b6200022682826200022a565b5050565b6000828152602081815260408083206001600160a01b038516845290915290205460ff1662000226576000828152602081815260408083206001600160a01b03851684529091529020805460ff19166001179055620002863390565b6001600160a01b0316816001600160a01b0316837f2f8788117e7eff1d82e926ec794901d17c78024a50270940304540a733656f0d60405160405180910390a45050565b80516001600160a01b0381168114620002e257600080fd5b919050565b600082601f830112620002f957600080fd5b815160206001600160401b03808311156200031857620003186200044e565b8260051b604051601f19603f830116810181811084821117156200034057620003406200044e565b604052848152838101925086840182880185018910156200036057600080fd5b600092505b858310156200038e576200037981620002ca565b84529284019260019290920191840162000365565b50979650505050505050565b600080600060608486031215620003b057600080fd5b835160208501519093506001600160401b0380821115620003d057600080fd5b620003de87838801620002e7565b93506040860151915080821115620003f557600080fd5b506200040486828701620002e7565b9150509250925092565b60006000198214156200043157634e487b7160e01b600052601160045260246000fd5b5060010190565b634e487b7160e01b600052603260045260246000fd5b634e487b7160e01b600052604160045260246000fd5b6118d980620004746000396000f3fe60806040526004361061011f5760003560e01c806301d5062a1461012b57806301ffc9a71461014d57806307bd0265146101825780630d3cf6fc146101b2578063134008d3146101e657806313bc9f20146101f9578063248a9ca3146102195780632ab0f529146102395780632f2ff15d1461025957806331d507501461027957806336568abe14610299578063584b153e146102b957806364d62353146102d95780638065657f146102f95780638f2a0bb0146103195780638f61f4f51461033957806391d148541461035b578063a217fddf1461037b578063b1c5f42714610390578063c4d252f5146103b0578063d45c4435146103d0578063d547741f146103f0578063e38335e514610410578063f27a0c921461042357600080fd5b3661012657005b600080fd5b34801561013757600080fd5b5061014b6101463660046111f7565b610438565b005b34801561015957600080fd5b5061016d610168366004611409565b6104bc565b60405190151581526020015b60405180910390f35b34801561018e57600080fd5b506101a460008051602061188483398151915281565b604051908152602001610179565b3480156101be57600080fd5b506101a47f5f58e3a2316349923ce3780f8d587db2d72378aed66a8261c916544fa6846ca581565b61014b6101f436600461118c565b6104f3565b34801561020557600080fd5b5061016d6102143660046113c4565b610559565b34801561022557600080fd5b506101a46102343660046113c4565b61057e565b34801561024557600080fd5b5061016d6102543660046113c4565b610593565b34801561026557600080fd5b5061014b6102743660046113dd565b6105a7565b34801561028557600080fd5b5061016d6102943660046113c4565b6105c9565b3480156102a557600080fd5b5061014b6102b43660046113dd565b6105dc565b3480156102c557600080fd5b5061016d6102d43660046113c4565b61065f565b3480156102e557600080fd5b5061014b6102f43660046113c4565b61066c565b34801561030557600080fd5b506101a461031436600461118c565b610710565b34801561032557600080fd5b5061014b610334366004611313565b61074f565b34801561034557600080fd5b506101a460008051602061186483398151915281565b34801561036757600080fd5b5061016d6103763660046113dd565b610890565b34801561038757600080fd5b506101a4600081565b34801561039c57600080fd5b506101a46103ab36600461126b565b6108b9565b3480156103bc57600080fd5b5061014b6103cb3660046113c4565b6108fe565b3480156103dc57600080fd5b506101a46103eb3660046113c4565b6109c2565b3480156103fc57600080fd5b5061014b61040b3660046113dd565b6109d4565b61014b61041e36600461126b565b6109f1565b34801561042f57600080fd5b506002546101a4565b6000805160206118648339815191526104518133610b14565b6000610461898989898989610710565b905061046d8184610b78565b6000817f4cf4410cc57040e44862ef0f45f3dd5a5e02db8eb8add648d4b0e236f1d07dca8b8b8b8b8b8a6040516104a99695949392919061159a565b60405180910390a3505050505050505050565b60006001600160e01b03198216637965db0b60e01b14806104ed57506301ffc9a760e01b6001600160e01b03198316145b92915050565b60008051602061188483398151915261050d816000610890565b61051b5761051b8133610b14565b600061052b888888888888610710565b90506105378185610c67565b6105468160008a8a8a8a610cf8565b61054f81610e0c565b5050505050505050565b600080610565836109c2565b90506001811180156105775750428111155b9392505050565b60009081526020819052604090206001015490565b600060016105a0836109c2565b1492915050565b6105b08261057e565b6105ba8133610b14565b6105c48383610e45565b505050565b6000806105d5836109c2565b1192915050565b6001600160a01b03811633146106515760405162461bcd60e51b815260206004820152602f60248201527f416363657373436f6e74726f6c3a2063616e206f6e6c792072656e6f756e636560448201526e103937b632b9903337b91039b2b63360891b60648201526084015b60405180910390fd5b61065b8282610ec9565b5050565b600060016105d5836109c2565b3330146106cf5760405162461bcd60e51b815260206004820152602b60248201527f54696d656c6f636b436f6e74726f6c6c65723a2063616c6c6572206d7573742060448201526a62652074696d656c6f636b60a81b6064820152608401610648565b60025460408051918252602082018390527f11c24f4ead16507c69ac467fbd5e4eed5fb5c699626d2cc6d66421df253886d5910160405180910390a1600255565b600086868686868660405160200161072d9695949392919061159a565b6040516020818303038152906040528051906020012090509695505050505050565b6000805160206118648339815191526107688133610b14565b8887146107875760405162461bcd60e51b8152600401610648906116b5565b8885146107a65760405162461bcd60e51b8152600401610648906116b5565b60006107b88b8b8b8b8b8b8b8b6108b9565b90506107c48184610b78565b60005b8a8110156108825780827f4cf4410cc57040e44862ef0f45f3dd5a5e02db8eb8add648d4b0e236f1d07dca8e8e8581811061080457610804611837565b90506020020160208101906108199190611171565b8d8d8681811061082b5761082b611837565b905060200201358c8c8781811061084457610844611837565b90506020028101906108569190611742565b8c8b60405161086a9695949392919061159a565b60405180910390a361087b81611806565b90506107c7565b505050505050505050505050565b6000918252602082815260408084206001600160a01b0393909316845291905290205460ff1690565b600088888888888888886040516020016108da9897969594939291906115d7565b60405160208183030381529060405280519060200120905098975050505050505050565b6000805160206118648339815191526109178133610b14565b6109208261065f565b6109865760405162461bcd60e51b815260206004820152603160248201527f54696d656c6f636b436f6e74726f6c6c65723a206f7065726174696f6e2063616044820152701b9b9bdd0818994818d85b98d95b1b1959607a1b6064820152608401610648565b6000828152600160205260408082208290555183917fbaa1eb22f2a492ba1a5fea61b8df4d27c6c8b5f3971e63bb58fa14ff72eedb7091a25050565b60009081526001602052604090205490565b6109dd8261057e565b6109e78133610b14565b6105c48383610ec9565b600080516020611884833981519152610a0b816000610890565b610a1957610a198133610b14565b878614610a385760405162461bcd60e51b8152600401610648906116b5565b878414610a575760405162461bcd60e51b8152600401610648906116b5565b6000610a698a8a8a8a8a8a8a8a6108b9565b9050610a758185610c67565b60005b89811015610afe57610aee82828d8d85818110610a9757610a97611837565b9050602002016020810190610aac9190611171565b8c8c86818110610abe57610abe611837565b905060200201358b8b87818110610ad757610ad7611837565b9050602002810190610ae99190611742565b610cf8565b610af781611806565b9050610a78565b50610b0881610e0c565b50505050505050505050565b610b1e8282610890565b61065b57610b36816001600160a01b03166014610f2e565b610b41836020610f2e565b604051602001610b529291906114f9565b60408051601f198184030181529082905262461bcd60e51b825261064891600401611682565b610b81826105c9565b15610be65760405162461bcd60e51b815260206004820152602f60248201527f54696d656c6f636b436f6e74726f6c6c65723a206f7065726174696f6e20616c60448201526e1c9958591e481cd8da19591d5b1959608a1b6064820152608401610648565b600254811015610c475760405162461bcd60e51b815260206004820152602660248201527f54696d656c6f636b436f6e74726f6c6c65723a20696e73756666696369656e746044820152652064656c617960d01b6064820152608401610648565b610c518142611788565b6000928352600160205260409092209190915550565b610c7082610559565b610c8c5760405162461bcd60e51b8152600401610648906116f8565b801580610c9d5750610c9d81610593565b61065b5760405162461bcd60e51b815260206004820152602660248201527f54696d656c6f636b436f6e74726f6c6c65723a206d697373696e6720646570656044820152656e64656e637960d01b6064820152608401610648565b6000846001600160a01b0316848484604051610d159291906114e9565b60006040518083038185875af1925050503d8060008114610d52576040519150601f19603f3d011682016040523d82523d6000602084013e610d57565b606091505b5050905080610dc45760405162461bcd60e51b815260206004820152603360248201527f54696d656c6f636b436f6e74726f6c6c65723a20756e6465726c79696e6720746044820152721c985b9cd858dd1a5bdb881c995d995c9d1959606a1b6064820152608401610648565b85877fc2617efa69bab66782fa219543714338489c4e9e178271560a91b82c3f612b5887878787604051610dfb9493929190611568565b60405180910390a350505050505050565b610e1581610559565b610e315760405162461bcd60e51b8152600401610648906116f8565b600090815260016020819052604090912055565b610e4f8282610890565b61065b576000828152602081815260408083206001600160a01b03851684529091529020805460ff19166001179055610e853390565b6001600160a01b0316816001600160a01b0316837f2f8788117e7eff1d82e926ec794901d17c78024a50270940304540a733656f0d60405160405180910390a45050565b610ed38282610890565b1561065b576000828152602081815260408083206001600160a01b0385168085529252808320805460ff1916905551339285917ff6391f5c32d9c69d2a47ea670b442974b53935d1edc7fd64eb21e047a839171b9190a45050565b60606000610f3d8360026117a0565b610f48906002611788565b6001600160401b03811115610f5f57610f5f61184d565b6040519080825280601f01601f191660200182016040528015610f89576020820181803683370190505b509050600360fc1b81600081518110610fa457610fa4611837565b60200101906001600160f81b031916908160001a905350600f60fb1b81600181518110610fd357610fd3611837565b60200101906001600160f81b031916908160001a9053506000610ff78460026117a0565b611002906001611788565b90505b600181111561107a576f181899199a1a9b1b9c1cb0b131b232b360811b85600f166010811061103657611036611837565b1a60f81b82828151811061104c5761104c611837565b60200101906001600160f81b031916908160001a90535060049490941c93611073816117ef565b9050611005565b5083156105775760405162461bcd60e51b815260206004820181905260248201527f537472696e67733a20686578206c656e67746820696e73756666696369656e746044820152606401610648565b80356001600160a01b03811681146110e057600080fd5b919050565b60008083601f8401126110f757600080fd5b5081356001600160401b0381111561110e57600080fd5b6020830191508360208260051b850101111561112957600080fd5b9250929050565b60008083601f84011261114257600080fd5b5081356001600160401b0381111561115957600080fd5b60208301915083602082850101111561112957600080fd5b60006020828403121561118357600080fd5b610577826110c9565b60008060008060008060a087890312156111a557600080fd5b6111ae876110c9565b95506020870135945060408701356001600160401b038111156111d057600080fd5b6111dc89828a01611130565b979a9699509760608101359660809091013595509350505050565b600080600080600080600060c0888a03121561121257600080fd5b61121b886110c9565b96506020880135955060408801356001600160401b0381111561123d57600080fd5b6112498a828b01611130565b989b979a50986060810135976080820135975060a09091013595509350505050565b60008060008060008060008060a0898b03121561128757600080fd5b88356001600160401b038082111561129e57600080fd5b6112aa8c838d016110e5565b909a50985060208b01359150808211156112c357600080fd5b6112cf8c838d016110e5565b909850965060408b01359150808211156112e857600080fd5b506112f58b828c016110e5565b999c989b509699959896976060870135966080013595509350505050565b600080600080600080600080600060c08a8c03121561133157600080fd5b89356001600160401b038082111561134857600080fd5b6113548d838e016110e5565b909b50995060208c013591508082111561136d57600080fd5b6113798d838e016110e5565b909950975060408c013591508082111561139257600080fd5b5061139f8c828d016110e5565b9a9d999c50979a969997986060880135976080810135975060a0013595509350505050565b6000602082840312156113d657600080fd5b5035919050565b600080604083850312156113f057600080fd5b82359150611400602084016110c9565b90509250929050565b60006020828403121561141b57600080fd5b81356001600160e01b03198116811461057757600080fd5b818352600060208085019450848460051b86018460005b878110156114b35783830389528135601e1988360301811261146b57600080fd5b870180356001600160401b0381111561148357600080fd5b80360389131561149257600080fd5b61149f85828985016114c0565b9a87019a945050509084019060010161144a565b5090979650505050505050565b81835281816020850137506000828201602090810191909152601f909101601f19169091010190565b8183823760009101908152919050565b76020b1b1b2b9b9a1b7b73a3937b61d1030b1b1b7bab73a1604d1b81526000835161152b8160178501602088016117bf565b7001034b99036b4b9b9b4b733903937b6329607d1b601791840191820152835161155c8160288401602088016117bf565b01602801949350505050565b60018060a01b03851681528360208201526060604082015260006115906060830184866114c0565b9695505050505050565b60018060a01b038716815285602082015260a0604082015260006115c260a0830186886114c0565b60608301949094525060800152949350505050565b60a0808252810188905260008960c08301825b8b811015611618576001600160a01b03611603846110c9565b168252602092830192909101906001016115ea565b5083810360208501528881526001600160fb1b0389111561163857600080fd5b8860051b9150818a60208301378181019150506020810160008152602084830301604085015261166981888a611433565b6060850196909652505050608001529695505050505050565b60208152600082518060208401526116a18160408501602087016117bf565b601f01601f19169190910160400192915050565b60208082526023908201527f54696d656c6f636b436f6e74726f6c6c65723a206c656e677468206d69736d616040820152620e8c6d60eb1b606082015260800190565b6020808252602a908201527f54696d656c6f636b436f6e74726f6c6c65723a206f7065726174696f6e206973604082015269206e6f7420726561647960b01b606082015260800190565b6000808335601e1984360301811261175957600080fd5b8301803591506001600160401b0382111561177357600080fd5b60200191503681900382131561112957600080fd5b6000821982111561179b5761179b611821565b500190565b60008160001904831182151516156117ba576117ba611821565b500290565b60005b838110156117da5781810151838201526020016117c2565b838111156117e9576000848401525b50505050565b6000816117fe576117fe611821565b506000190190565b600060001982141561181a5761181a611821565b5060010190565b634e487b7160e01b600052601160045260246000fd5b634e487b7160e01b600052603260045260246000fd5b634e487b7160e01b600052604160045260246000fdfeb09aa5aeb3702cfd50b6b62bc4532604938f21248a27a1d5ca736082b6819cc1d8aa0f3194971a2a116679f7c2090f6939c8d4e01a2a8d7e41d55e5351469e63a2646970667358221220346eddff903429b67da7d16cc069f6a56e888b3b4106149a4438a4cad8aa110664736f6c634300080700335f58e3a2316349923ce3780f8d587db2d72378aed66a8261c916544fa6846ca5b09aa5aeb3702cfd50b6b62bc4532604938f21248a27a1d5ca736082b6819cc1d8aa0f3194971a2a116679f7c2090f6939c8d4e01a2a8d7e41d55e5351469e63",
  "immutableReferences": {},
  "source": "// SPDX-License-Identifier: MIT\r\n\r\npragma solidity ^0.8.0;\r\n\r\nimport \"@openzeppelin/contracts/governance/TimelockController.sol\";\r\n\r\ncontract MyTimeLock is TimelockController {\r\n    constructor(uint256 minDelay,\r\n            address[] memory proposers,\r\n            address[] memory executors\r\n        )\r\n            TimelockController(minDelay, proposers, executors) {}\r\n}\r\n",
  "sourcePath": "C:\\learn\\ChainLink\\governance\\contracts\\MyTimeLock.sol",
  "compiler": {
    "name": "solc",
    "version": "0.8.7+commit.e28d00a7.Emscripten.clang"
  },
  "schemaVersion": "3.4.3",
  "updatedAt": "2021-11-13T21:47:46.822Z",
  "networkType": "ethereum",
  "devdoc": {
    "kind": "dev",
    "methods": {
      "cancel(bytes32)": {
        "details": "Cancel an operation. Requirements: - the caller must have the 'proposer' role."
      },
      "execute(address,uint256,bytes,bytes32,bytes32)": {
        "details": "Execute an (ready) operation containing a single transaction. Emits a {CallExecuted} event. Requirements: - the caller must have the 'executor' role."
      },
      "executeBatch(address[],uint256[],bytes[],bytes32,bytes32)": {
        "details": "Execute an (ready) operation containing a batch of transactions. Emits one {CallExecuted} event per transaction in the batch. Requirements: - the caller must have the 'executor' role."
      },
      "getMinDelay()": {
        "details": "Returns the minimum delay for an operation to become valid. This value can be changed by executing an operation that calls `updateDelay`."
      },
      "getRoleAdmin(bytes32)": {
        "details": "Returns the admin role that controls `role`. See {grantRole} and {revokeRole}. To change a role's admin, use {_setRoleAdmin}."
      },
      "getTimestamp(bytes32)": {
        "details": "Returns the timestamp at with an operation becomes ready (0 for unset operations, 1 for done operations)."
      },
      "grantRole(bytes32,address)": {
        "details": "Grants `role` to `account`. If `account` had not been already granted `role`, emits a {RoleGranted} event. Requirements: - the caller must have ``role``'s admin role."
      },
      "hasRole(bytes32,address)": {
        "details": "Returns `true` if `account` has been granted `role`."
      },
      "hashOperation(address,uint256,bytes,bytes32,bytes32)": {
        "details": "Returns the identifier of an operation containing a single transaction."
      },
      "hashOperationBatch(address[],uint256[],bytes[],bytes32,bytes32)": {
        "details": "Returns the identifier of an operation containing a batch of transactions."
      },
      "isOperation(bytes32)": {
        "details": "Returns whether an id correspond to a registered operation. This includes both Pending, Ready and Done operations."
      },
      "isOperationDone(bytes32)": {
        "details": "Returns whether an operation is done or not."
      },
      "isOperationPending(bytes32)": {
        "details": "Returns whether an operation is pending or not."
      },
      "isOperationReady(bytes32)": {
        "details": "Returns whether an operation is ready or not."
      },
      "renounceRole(bytes32,address)": {
        "details": "Revokes `role` from the calling account. Roles are often managed via {grantRole} and {revokeRole}: this function's purpose is to provide a mechanism for accounts to lose their privileges if they are compromised (such as when a trusted device is misplaced). If the calling account had been granted `role`, emits a {RoleRevoked} event. Requirements: - the caller must be `account`."
      },
      "revokeRole(bytes32,address)": {
        "details": "Revokes `role` from `account`. If `account` had been granted `role`, emits a {RoleRevoked} event. Requirements: - the caller must have ``role``'s admin role."
      },
      "schedule(address,uint256,bytes,bytes32,bytes32,uint256)": {
        "details": "Schedule an operation containing a single transaction. Emits a {CallScheduled} event. Requirements: - the caller must have the 'proposer' role."
      },
      "scheduleBatch(address[],uint256[],bytes[],bytes32,bytes32,uint256)": {
        "details": "Schedule an operation containing a batch of transactions. Emits one {CallScheduled} event per transaction in the batch. Requirements: - the caller must have the 'proposer' role."
      },
      "supportsInterface(bytes4)": {
        "details": "See {IERC165-supportsInterface}."
      },
      "updateDelay(uint256)": {
        "details": "Changes the minimum timelock duration for future operations. Emits a {MinDelayChange} event. Requirements: - the caller must be the timelock itself. This can only be achieved by scheduling and later executing an operation where the timelock is the target and the data is the ABI-encoded call to this function."
      }
    },
    "version": 1
  },
  "userdoc": {
    "kind": "user",
    "methods": {},
    "version": 1
  }
}