{
  "contractName": "VerifierGovernor",
  "abi": [
    {
      "inputs": [
        {
          "internalType": "contract ERC20Votes",
          "name": "_token",
          "type": "address"
        },
        {
          "internalType": "contract TimelockController",
          "name": "_timelock",
          "type": "address"
        }
      ],
      "stateMutability": "nonpayable",
      "type": "constructor"
    },
    {
      "anonymous": false,
      "inputs": [
        {
          "indexed": false,
          "internalType": "uint256",
          "name": "proposalId",
          "type": "uint256"
        }
      ],
      "name": "ProposalCanceled",
      "type": "event"
    },
    {
      "anonymous": false,
      "inputs": [
        {
          "indexed": false,
          "internalType": "uint256",
          "name": "proposalId",
          "type": "uint256"
        },
        {
          "indexed": false,
          "internalType": "address",
          "name": "proposer",
          "type": "address"
        },
        {
          "indexed": false,
          "internalType": "address[]",
          "name": "targets",
          "type": "address[]"
        },
        {
          "indexed": false,
          "internalType": "uint256[]",
          "name": "values",
          "type": "uint256[]"
        },
        {
          "indexed": false,
          "internalType": "string[]",
          "name": "signatures",
          "type": "string[]"
        },
        {
          "indexed": false,
          "internalType": "bytes[]",
          "name": "calldatas",
          "type": "bytes[]"
        },
        {
          "indexed": false,
          "internalType": "uint256",
          "name": "startBlock",
          "type": "uint256"
        },
        {
          "indexed": false,
          "internalType": "uint256",
          "name": "endBlock",
          "type": "uint256"
        },
        {
          "indexed": false,
          "internalType": "string",
          "name": "description",
          "type": "string"
        }
      ],
      "name": "ProposalCreated",
      "type": "event"
    },
    {
      "anonymous": false,
      "inputs": [
        {
          "indexed": false,
          "internalType": "uint256",
          "name": "proposalId",
          "type": "uint256"
        }
      ],
      "name": "ProposalExecuted",
      "type": "event"
    },
    {
      "anonymous": false,
      "inputs": [
        {
          "indexed": false,
          "internalType": "uint256",
          "name": "proposalId",
          "type": "uint256"
        },
        {
          "indexed": false,
          "internalType": "uint256",
          "name": "eta",
          "type": "uint256"
        }
      ],
      "name": "ProposalQueued",
      "type": "event"
    },
    {
      "anonymous": false,
      "inputs": [
        {
          "indexed": false,
          "internalType": "uint256",
          "name": "oldQuorumNumerator",
          "type": "uint256"
        },
        {
          "indexed": false,
          "internalType": "uint256",
          "name": "newQuorumNumerator",
          "type": "uint256"
        }
      ],
      "name": "QuorumNumeratorUpdated",
      "type": "event"
    },
    {
      "anonymous": false,
      "inputs": [
        {
          "indexed": false,
          "internalType": "address",
          "name": "oldTimelock",
          "type": "address"
        },
        {
          "indexed": false,
          "internalType": "address",
          "name": "newTimelock",
          "type": "address"
        }
      ],
      "name": "TimelockChange",
      "type": "event"
    },
    {
      "anonymous": false,
      "inputs": [
        {
          "indexed": true,
          "internalType": "address",
          "name": "voter",
          "type": "address"
        },
        {
          "indexed": false,
          "internalType": "uint256",
          "name": "proposalId",
          "type": "uint256"
        },
        {
          "indexed": false,
          "internalType": "uint8",
          "name": "support",
          "type": "uint8"
        },
        {
          "indexed": false,
          "internalType": "uint256",
          "name": "weight",
          "type": "uint256"
        },
        {
          "indexed": false,
          "internalType": "string",
          "name": "reason",
          "type": "string"
        }
      ],
      "name": "VoteCast",
      "type": "event"
    },
    {
      "inputs": [],
      "name": "BALLOT_TYPEHASH",
      "outputs": [
        {
          "internalType": "bytes32",
          "name": "",
          "type": "bytes32"
        }
      ],
      "stateMutability": "view",
      "type": "function",
      "constant": true
    },
    {
      "inputs": [],
      "name": "COUNTING_MODE",
      "outputs": [
        {
          "internalType": "string",
          "name": "",
          "type": "string"
        }
      ],
      "stateMutability": "pure",
      "type": "function",
      "constant": true
    },
    {
      "inputs": [
        {
          "internalType": "uint256",
          "name": "proposalId",
          "type": "uint256"
        }
      ],
      "name": "cancel",
      "outputs": [],
      "stateMutability": "nonpayable",
      "type": "function"
    },
    {
      "inputs": [
        {
          "internalType": "uint256",
          "name": "proposalId",
          "type": "uint256"
        },
        {
          "internalType": "uint8",
          "name": "support",
          "type": "uint8"
        }
      ],
      "name": "castVote",
      "outputs": [
        {
          "internalType": "uint256",
          "name": "",
          "type": "uint256"
        }
      ],
      "stateMutability": "nonpayable",
      "type": "function"
    },
    {
      "inputs": [
        {
          "internalType": "uint256",
          "name": "proposalId",
          "type": "uint256"
        },
        {
          "internalType": "uint8",
          "name": "support",
          "type": "uint8"
        },
        {
          "internalType": "uint8",
          "name": "v",
          "type": "uint8"
        },
        {
          "internalType": "bytes32",
          "name": "r",
          "type": "bytes32"
        },
        {
          "internalType": "bytes32",
          "name": "s",
          "type": "bytes32"
        }
      ],
      "name": "castVoteBySig",
      "outputs": [
        {
          "internalType": "uint256",
          "name": "",
          "type": "uint256"
        }
      ],
      "stateMutability": "nonpayable",
      "type": "function"
    },
    {
      "inputs": [
        {
          "internalType": "uint256",
          "name": "proposalId",
          "type": "uint256"
        },
        {
          "internalType": "uint8",
          "name": "support",
          "type": "uint8"
        },
        {
          "internalType": "string",
          "name": "reason",
          "type": "string"
        }
      ],
      "name": "castVoteWithReason",
      "outputs": [
        {
          "internalType": "uint256",
          "name": "",
          "type": "uint256"
        }
      ],
      "stateMutability": "nonpayable",
      "type": "function"
    },
    {
      "inputs": [
        {
          "internalType": "address[]",
          "name": "targets",
          "type": "address[]"
        },
        {
          "internalType": "uint256[]",
          "name": "values",
          "type": "uint256[]"
        },
        {
          "internalType": "bytes[]",
          "name": "calldatas",
          "type": "bytes[]"
        },
        {
          "internalType": "bytes32",
          "name": "descriptionHash",
          "type": "bytes32"
        }
      ],
      "name": "execute",
      "outputs": [
        {
          "internalType": "uint256",
          "name": "",
          "type": "uint256"
        }
      ],
      "stateMutability": "payable",
      "type": "function",
      "payable": true
    },
    {
      "inputs": [
        {
          "internalType": "uint256",
          "name": "proposalId",
          "type": "uint256"
        }
      ],
      "name": "execute",
      "outputs": [],
      "stateMutability": "payable",
      "type": "function",
      "payable": true
    },
    {
      "inputs": [
        {
          "internalType": "uint256",
          "name": "proposalId",
          "type": "uint256"
        }
      ],
      "name": "getActions",
      "outputs": [
        {
          "internalType": "address[]",
          "name": "targets",
          "type": "address[]"
        },
        {
          "internalType": "uint256[]",
          "name": "values",
          "type": "uint256[]"
        },
        {
          "internalType": "string[]",
          "name": "signatures",
          "type": "string[]"
        },
        {
          "internalType": "bytes[]",
          "name": "calldatas",
          "type": "bytes[]"
        }
      ],
      "stateMutability": "view",
      "type": "function",
      "constant": true
    },
    {
      "inputs": [
        {
          "internalType": "uint256",
          "name": "proposalId",
          "type": "uint256"
        },
        {
          "internalType": "address",
          "name": "voter",
          "type": "address"
        }
      ],
      "name": "getReceipt",
      "outputs": [
        {
          "components": [
            {
              "internalType": "bool",
              "name": "hasVoted",
              "type": "bool"
            },
            {
              "internalType": "uint8",
              "name": "support",
              "type": "uint8"
            },
            {
              "internalType": "uint96",
              "name": "votes",
              "type": "uint96"
            }
          ],
          "internalType": "struct IGovernorCompatibilityBravo.Receipt",
          "name": "",
          "type": "tuple"
        }
      ],
      "stateMutability": "view",
      "type": "function",
      "constant": true
    },
    {
      "inputs": [
        {
          "internalType": "uint256",
          "name": "proposalId",
          "type": "uint256"
        },
        {
          "internalType": "address",
          "name": "account",
          "type": "address"
        }
      ],
      "name": "hasVoted",
      "outputs": [
        {
          "internalType": "bool",
          "name": "",
          "type": "bool"
        }
      ],
      "stateMutability": "view",
      "type": "function",
      "constant": true
    },
    {
      "inputs": [
        {
          "internalType": "address[]",
          "name": "targets",
          "type": "address[]"
        },
        {
          "internalType": "uint256[]",
          "name": "values",
          "type": "uint256[]"
        },
        {
          "internalType": "bytes[]",
          "name": "calldatas",
          "type": "bytes[]"
        },
        {
          "internalType": "bytes32",
          "name": "descriptionHash",
          "type": "bytes32"
        }
      ],
      "name": "hashProposal",
      "outputs": [
        {
          "internalType": "uint256",
          "name": "",
          "type": "uint256"
        }
      ],
      "stateMutability": "pure",
      "type": "function",
      "constant": true
    },
    {
      "inputs": [],
      "name": "name",
      "outputs": [
        {
          "internalType": "string",
          "name": "",
          "type": "string"
        }
      ],
      "stateMutability": "view",
      "type": "function",
      "constant": true
    },
    {
      "inputs": [
        {
          "internalType": "uint256",
          "name": "proposalId",
          "type": "uint256"
        }
      ],
      "name": "proposalDeadline",
      "outputs": [
        {
          "internalType": "uint256",
          "name": "",
          "type": "uint256"
        }
      ],
      "stateMutability": "view",
      "type": "function",
      "constant": true
    },
    {
      "inputs": [
        {
          "internalType": "uint256",
          "name": "proposalId",
          "type": "uint256"
        }
      ],
      "name": "proposalEta",
      "outputs": [
        {
          "internalType": "uint256",
          "name": "",
          "type": "uint256"
        }
      ],
      "stateMutability": "view",
      "type": "function",
      "constant": true
    },
    {
      "inputs": [
        {
          "internalType": "uint256",
          "name": "proposalId",
          "type": "uint256"
        }
      ],
      "name": "proposalSnapshot",
      "outputs": [
        {
          "internalType": "uint256",
          "name": "",
          "type": "uint256"
        }
      ],
      "stateMutability": "view",
      "type": "function",
      "constant": true
    },
    {
      "inputs": [
        {
          "internalType": "uint256",
          "name": "proposalId",
          "type": "uint256"
        }
      ],
      "name": "proposals",
      "outputs": [
        {
          "internalType": "uint256",
          "name": "id",
          "type": "uint256"
        },
        {
          "internalType": "address",
          "name": "proposer",
          "type": "address"
        },
        {
          "internalType": "uint256",
          "name": "eta",
          "type": "uint256"
        },
        {
          "internalType": "uint256",
          "name": "startBlock",
          "type": "uint256"
        },
        {
          "internalType": "uint256",
          "name": "endBlock",
          "type": "uint256"
        },
        {
          "internalType": "uint256",
          "name": "forVotes",
          "type": "uint256"
        },
        {
          "internalType": "uint256",
          "name": "againstVotes",
          "type": "uint256"
        },
        {
          "internalType": "uint256",
          "name": "abstainVotes",
          "type": "uint256"
        },
        {
          "internalType": "bool",
          "name": "canceled",
          "type": "bool"
        },
        {
          "internalType": "bool",
          "name": "executed",
          "type": "bool"
        }
      ],
      "stateMutability": "view",
      "type": "function",
      "constant": true
    },
    {
      "inputs": [
        {
          "internalType": "address[]",
          "name": "targets",
          "type": "address[]"
        },
        {
          "internalType": "uint256[]",
          "name": "values",
          "type": "uint256[]"
        },
        {
          "internalType": "bytes[]",
          "name": "calldatas",
          "type": "bytes[]"
        },
        {
          "internalType": "bytes32",
          "name": "descriptionHash",
          "type": "bytes32"
        }
      ],
      "name": "queue",
      "outputs": [
        {
          "internalType": "uint256",
          "name": "",
          "type": "uint256"
        }
      ],
      "stateMutability": "nonpayable",
      "type": "function"
    },
    {
      "inputs": [
        {
          "internalType": "uint256",
          "name": "proposalId",
          "type": "uint256"
        }
      ],
      "name": "queue",
      "outputs": [],
      "stateMutability": "nonpayable",
      "type": "function"
    },
    {
      "inputs": [],
      "name": "quorumDenominator",
      "outputs": [
        {
          "internalType": "uint256",
          "name": "",
          "type": "uint256"
        }
      ],
      "stateMutability": "view",
      "type": "function",
      "constant": true
    },
    {
      "inputs": [],
      "name": "quorumNumerator",
      "outputs": [
        {
          "internalType": "uint256",
          "name": "",
          "type": "uint256"
        }
      ],
      "stateMutability": "view",
      "type": "function",
      "constant": true
    },
    {
      "inputs": [],
      "name": "quorumVotes",
      "outputs": [
        {
          "internalType": "uint256",
          "name": "",
          "type": "uint256"
        }
      ],
      "stateMutability": "view",
      "type": "function",
      "constant": true
    },
    {
      "inputs": [],
      "name": "timelock",
      "outputs": [
        {
          "internalType": "address",
          "name": "",
          "type": "address"
        }
      ],
      "stateMutability": "view",
      "type": "function",
      "constant": true
    },
    {
      "inputs": [],
      "name": "token",
      "outputs": [
        {
          "internalType": "contract ERC20Votes",
          "name": "",
          "type": "address"
        }
      ],
      "stateMutability": "view",
      "type": "function",
      "constant": true
    },
    {
      "inputs": [
        {
          "internalType": "uint256",
          "name": "newQuorumNumerator",
          "type": "uint256"
        }
      ],
      "name": "updateQuorumNumerator",
      "outputs": [],
      "stateMutability": "nonpayable",
      "type": "function"
    },
    {
      "inputs": [
        {
          "internalType": "contract TimelockController",
          "name": "newTimelock",
          "type": "address"
        }
      ],
      "name": "updateTimelock",
      "outputs": [],
      "stateMutability": "nonpayable",
      "type": "function"
    },
    {
      "inputs": [],
      "name": "version",
      "outputs": [
        {
          "internalType": "string",
          "name": "",
          "type": "string"
        }
      ],
      "stateMutability": "view",
      "type": "function",
      "constant": true
    },
    {
      "inputs": [],
      "name": "votingDelay",
      "outputs": [
        {
          "internalType": "uint256",
          "name": "",
          "type": "uint256"
        }
      ],
      "stateMutability": "pure",
      "type": "function",
      "constant": true
    },
    {
      "inputs": [],
      "name": "votingPeriod",
      "outputs": [
        {
          "internalType": "uint256",
          "name": "",
          "type": "uint256"
        }
      ],
      "stateMutability": "pure",
      "type": "function",
      "constant": true
    },
    {
      "inputs": [],
      "name": "proposalThreshold",
      "outputs": [
        {
          "internalType": "uint256",
          "name": "",
          "type": "uint256"
        }
      ],
      "stateMutability": "pure",
      "type": "function",
      "constant": true
    },
    {
      "inputs": [
        {
          "internalType": "uint256",
          "name": "blockNumber",
          "type": "uint256"
        }
      ],
      "name": "quorum",
      "outputs": [
        {
          "internalType": "uint256",
          "name": "",
          "type": "uint256"
        }
      ],
      "stateMutability": "view",
      "type": "function",
      "constant": true
    },
    {
      "inputs": [
        {
          "internalType": "address",
          "name": "account",
          "type": "address"
        },
        {
          "internalType": "uint256",
          "name": "blockNumber",
          "type": "uint256"
        }
      ],
      "name": "getVotes",
      "outputs": [
        {
          "internalType": "uint256",
          "name": "",
          "type": "uint256"
        }
      ],
      "stateMutability": "view",
      "type": "function",
      "constant": true
    },
    {
      "inputs": [
        {
          "internalType": "uint256",
          "name": "proposalId",
          "type": "uint256"
        }
      ],
      "name": "state",
      "outputs": [
        {
          "internalType": "enum IGovernor.ProposalState",
          "name": "",
          "type": "uint8"
        }
      ],
      "stateMutability": "view",
      "type": "function",
      "constant": true
    },
    {
      "inputs": [
        {
          "internalType": "address[]",
          "name": "targets",
          "type": "address[]"
        },
        {
          "internalType": "uint256[]",
          "name": "values",
          "type": "uint256[]"
        },
        {
          "internalType": "bytes[]",
          "name": "calldatas",
          "type": "bytes[]"
        },
        {
          "internalType": "string",
          "name": "description",
          "type": "string"
        }
      ],
      "name": "propose",
      "outputs": [
        {
          "internalType": "uint256",
          "name": "",
          "type": "uint256"
        }
      ],
      "stateMutability": "nonpayable",
      "type": "function"
    },
    {
      "inputs": [
        {
          "internalType": "address[]",
          "name": "targets",
          "type": "address[]"
        },
        {
          "internalType": "uint256[]",
          "name": "values",
          "type": "uint256[]"
        },
        {
          "internalType": "string[]",
          "name": "signatures",
          "type": "string[]"
        },
        {
          "internalType": "bytes[]",
          "name": "calldatas",
          "type": "bytes[]"
        },
        {
          "internalType": "string",
          "name": "description",
          "type": "string"
        }
      ],
      "name": "propose",
      "outputs": [
        {
          "internalType": "uint256",
          "name": "",
          "type": "uint256"
        }
      ],
      "stateMutability": "nonpayable",
      "type": "function"
    },
    {
      "inputs": [
        {
          "internalType": "bytes4",
          "name": "interfaceId",
          "type": "bytes4"
        }
      ],
      "name": "supportsInterface",
      "outputs": [
        {
          "internalType": "bool",
          "name": "",
          "type": "bool"
        }
      ],
      "stateMutability": "view",
      "type": "function",
      "constant": true
    }
  ],
  "bytecode": "0x6101406040523480156200001257600080fd5b506040516200418d3803806200418d833981016040819052620000359162000337565b806004836040518060400160405280601081526020016f2b32b934b334b2b923b7bb32b93737b960811b81525080620000736200014060201b60201c565b815160209283012081519183019190912060c082815260e08290524660a0818152604080517f8b73c3c69bb8fe3d512ecc4cf759cc79239f7b179b0ffacaa9a75d522b39400f8189018190528183019790975260608101959095526080808601939093523085830152805180860390920182529390920190925280519084012090526101005281516200010d916000919084019062000291565b505060601b6001600160601b031916610120526200012b816200015b565b50620001378162000228565b505050620003cc565b6040805180820190915260018152603160f81b602082015290565b6064811115620001e35760405162461bcd60e51b815260206004820152604360248201527f476f7665726e6f72566f74657351756f72756d4672616374696f6e3a2071756f60448201527f72756d4e756d657261746f72206f7665722071756f72756d44656e6f6d696e616064820152623a37b960e91b608482015260a40160405180910390fd5b600380549082905560408051828152602081018490527f0553476bf02ef2726e8ce5ced78d63e26e602e4a2257b1f559418e24b4633997910160405180910390a15050565b600454604080516001600160a01b03928316815291831660208301527f08f74ea46ef7894f65eabfb5e6e695de773a000b47c529ab559178069b226401910160405180910390a1600480546001600160a01b0319166001600160a01b0392909216919091179055565b8280546200029f9062000376565b90600052602060002090601f016020900481019282620002c357600085556200030e565b82601f10620002de57805160ff19168380011785556200030e565b828001600101855582156200030e579182015b828111156200030e578251825591602001919060010190620002f1565b506200031c92915062000320565b5090565b5b808211156200031c576000815560010162000321565b600080604083850312156200034b57600080fd5b82516200035881620003b3565b60208401519092506200036b81620003b3565b809150509250929050565b600181811c908216806200038b57607f821691505b60208210811415620003ad57634e487b7160e01b600052602260045260246000fd5b50919050565b6001600160a01b0381168114620003c957600080fd5b50565b60805160a05160c05160e051610100516101205160601c613d606200042d6000396000818161076d0152818161204e01526120e70152600061227b015260006122ca015260006122a501526000612229015260006122520152613d606000f3fe6080604052600436106101af5760003560e01c80637d5e81e2116100e85780637d5e81e21461049057806397c3d334146104b0578063a7713a70146104c4578063a890c910146104d9578063ab58fb8e146104f9578063b58131b014610519578063c01f9e371461052d578063c59057e41461054d578063d33219b41461056d578063da95691a1461059a578063dd4e2ba5146105ba578063ddf0b009146105fd578063deaaa7cc1461061d578063e23a9a5214610651578063eb9019d41461071b578063f8ce560a1461073b578063fc0c546a1461075b578063fe0d94c11461078f57600080fd5b8063013cf08b146101b457806301ffc9a71461022f57806302a251a31461025f57806306f3f9e61461027e57806306fdde03146102a0578063160cbed7146102c257806324bc1a64146102e25780632656227d146102f75780632d63f6931461030a578063328dd9821461032a5780633932abb11461035a5780633bccf4fd1461036f5780633e4f49e61461038f57806340e58ee5146103bc57806343859632146103dc57806354fd4d501461042657806356781388146104505780637b3c71d314610470575b600080fd5b3480156101c057600080fd5b506101d46101cf3660046135fd565b6107a2565b604080519a8b526001600160a01b0390991660208b0152978901969096526060880194909452608087019290925260a086015260c085015260e084015215156101008301521515610120820152610140015b60405180910390f35b34801561023b57600080fd5b5061024f61024a3660046135b6565b61084b565b6040519015158152602001610226565b34801561026b57600080fd5b5061b3cb5b604051908152602001610226565b34801561028a57600080fd5b5061029e6102993660046135fd565b61085c565b005b3480156102ac57600080fd5b506102b56108a9565b6040516102269190613995565b3480156102ce57600080fd5b506102706102dd36600461336f565b61093b565b3480156102ee57600080fd5b50610270610b64565b61027061030536600461336f565b610b79565b34801561031657600080fd5b506102706103253660046135fd565b610c4c565b34801561033657600080fd5b5061034a6103453660046135fd565b610c83565b6040516102269493929190613948565b34801561036657600080fd5b506119af610270565b34801561037b57600080fd5b5061027061038a3660046136f8565b610f14565b34801561039b57600080fd5b506103af6103aa3660046135fd565b610fa8565b60405161022691906139a8565b3480156103c857600080fd5b5061029e6103d73660046135fd565b610fb3565b3480156103e857600080fd5b5061024f6103f7366004613616565b60008281526002602090815260408083206001600160a01b038516845260080190915290205460ff1692915050565b34801561043257600080fd5b506040805180820190915260018152603160f81b60208201526102b5565b34801561045c57600080fd5b5061027061046b366004613646565b6112c5565b34801561047c57600080fd5b5061027061048b366004613672565b6112ee565b34801561049c57600080fd5b506102706104ab3660046133fe565b611340565b3480156104bc57600080fd5b506064610270565b3480156104d057600080fd5b50600354610270565b3480156104e557600080fd5b5061029e6104f43660046135e0565b611357565b34801561050557600080fd5b506102706105143660046135fd565b611398565b34801561052557600080fd5b506000610270565b34801561053957600080fd5b506102706105483660046135fd565b61143c565b34801561055957600080fd5b5061027061056836600461336f565b61146b565b34801561057957600080fd5b506105826114a5565b6040516001600160a01b039091168152602001610226565b3480156105a657600080fd5b506102706105b53660046134aa565b6114b4565b3480156105c657600080fd5b5060408051808201909152601a815279737570706f72743d627261766f2671756f72756d3d627261766f60301b60208201526102b5565b34801561060957600080fd5b5061029e6106183660046135fd565b6114d9565b34801561062957600080fd5b506102707f150214d74d59b7d1e90c73fc22ef3d991dd0a76b046543d4d80ab92d2a50328f81565b34801561065d57600080fd5b506106eb61066c366004613616565b60408051606081018252600080825260208201819052918101919091525060009182526002602090815260408084206001600160a01b0393909316845260089092018152918190208151606081018352905460ff8082161515835261010082041693820193909352620100009092046001600160601b03169082015290565b6040805182511515815260208084015160ff1690820152918101516001600160601b031690820152606001610226565b34801561072757600080fd5b50610270610736366004613343565b611747565b34801561074757600080fd5b506102706107563660046135fd565b611753565b34801561076757600080fd5b506105827f000000000000000000000000000000000000000000000000000000000000000081565b61029e61079d3660046135fd565b61175e565b80600080808080808080806107b68a611398565b97506107c18b610c4c565b96506107cc8b61143c565b60008c815260026020526040812080546005820154600683015460078401546001600160a01b039093169e50949a50985092965091945061080c8d610fa8565b9050600281600781111561082257610822613cd3565b149350600781600781111561083957610839613cd3565b14925050509193959799509193959799565b6000610856826119cc565b92915050565b6108646119f1565b6001600160a01b0316336001600160a01b03161461089d5760405162461bcd60e51b8152600401610894906139d0565b60405180910390fd5b6108a6816119fb565b50565b6060600080546108b890613c6d565b80601f01602080910402602001604051908101604052809291908181526020018280546108e490613c6d565b80156109315780601f1061090657610100808354040283529160200191610931565b820191906000526020600020905b81548152906001019060200180831161091457829003601f168201915b5050505050905090565b60008061094a8686868661146b565b9050600461095782610fa8565b600781111561096857610968613cd3565b146109855760405162461bcd60e51b815260040161089490613a43565b6000600460009054906101000a90046001600160a01b03166001600160a01b031663f27a0c926040518163ffffffff1660e01b815260040160206040518083038186803b1580156109d557600080fd5b505afa1580156109e9573d6000803e3d6000fd5b505050506040513d601f19601f82011682018060405250810190610a0d919061359d565b6004805460405163b1c5f42760e01b81529293506001600160a01b03169163b1c5f42791610a46918b918b918b916000918c91016138a2565b60206040518083038186803b158015610a5e57600080fd5b505afa158015610a72573d6000803e3d6000fd5b505050506040513d601f19601f82011682018060405250810190610a96919061359d565b600083815260056020526040808220929092556004805492516308f2a0bb60e41b81526001600160a01b0390931692638f2a0bb092610ae1928c928c928c9290918c918a91016138f0565b600060405180830381600087803b158015610afb57600080fd5b505af1158015610b0f573d6000803e3d6000fd5b505050507f9a2e42fd6722813d69113e7d0079d3d940171428df7373df9c7f7617cfda2892828242610b419190613ba2565b604080519283526020830191909152015b60405180910390a15095945050505050565b6000610b74610756600143613c26565b905090565b600080610b888686868661146b565b90506000610b9582610fa8565b90506004816007811115610bab57610bab613cd3565b1480610bc857506005816007811115610bc657610bc6613cd3565b145b610be45760405162461bcd60e51b815260040161089490613a43565b600082815260016020818152604092839020600201805460ff191690921790915590518381527f712ae1383f79ac853f8d882153778e0260ef8f03b504e2866e0593e04d2b291f910160405180910390a1610c428288888888611ac3565b5095945050505050565b60008181526001602090815260408083208151928301909152546001600160401b0316908190525b6001600160401b031692915050565b60608060608060006002600087815260200190815260200160002090508060010181600201826003018360040183805480602002602001604051908101604052809291908181526020018280548015610d0557602002820191906000526020600020905b81546001600160a01b03168152600190910190602001808311610ce7575b5050505050935082805480602002602001604051908101604052809291908181526020018280548015610d5757602002820191906000526020600020905b815481526020019060010190808311610d43575b5050505050925081805480602002602001604051908101604052809291908181526020016000905b82821015610e2b578382906000526020600020018054610d9e90613c6d565b80601f0160208091040260200160405190810160405280929190818152602001828054610dca90613c6d565b8015610e175780601f10610dec57610100808354040283529160200191610e17565b820191906000526020600020905b815481529060010190602001808311610dfa57829003601f168201915b505050505081526020019060010190610d7f565b50505050915080805480602002602001604051908101604052809291908181526020016000905b82821015610efe578382906000526020600020018054610e7190613c6d565b80601f0160208091040260200160405190810160405280929190818152602001828054610e9d90613c6d565b8015610eea5780601f10610ebf57610100808354040283529160200191610eea565b820191906000526020600020905b815481529060010190602001808311610ecd57829003601f168201915b505050505081526020019060010190610e52565b5050505090509450945094509450509193509193565b604080517f150214d74d59b7d1e90c73fc22ef3d991dd0a76b046543d4d80ab92d2a50328f602082015290810186905260ff851660608201526000908190610f8090610f789060800160405160208183030381529060405280519060200120611ad7565b868686611b25565b9050610f9d87828860405180602001604052806000815250611b43565b979650505050505050565b600061085682611c4e565b600081815260026020526040902080546001600160a01b0316336001600160a01b03161480610ffb575060008154610ff9906001600160a01b0316610736600143613c26565b105b6110575760405162461bcd60e51b815260206004820152602760248201527f476f7665726e6f72427261766f3a2070726f706f7365722061626f76652074686044820152661c995cda1bdb1960ca1b6064820152608401610894565b6112c0816001018054806020026020016040519081016040528092919081815260200182805480156110b257602002820191906000526020600020905b81546001600160a01b03168152600190910190602001808311611094575b50505050508260020180548060200260200160405190810160405280929190818152602001828054801561110557602002820191906000526020600020905b8154815260200190600101908083116110f1575b50505050506112b684600301805480602002602001604051908101604052809291908181526020016000905b828210156111dd57838290600052602060002001805461115090613c6d565b80601f016020809104026020016040519081016040528092919081815260200182805461117c90613c6d565b80156111c95780601f1061119e576101008083540402835291602001916111c9565b820191906000526020600020905b8154815290600101906020018083116111ac57829003601f168201915b505050505081526020019060010190611131565b50505060048701805460408051602080840282018101909252828152935060009084015b828210156112ad57838290600052602060002001805461122090613c6d565b80601f016020809104026020016040519081016040528092919081815260200182805461124c90613c6d565b80156112995780601f1061126e57610100808354040283529160200191611299565b820191906000526020600020905b81548152906001019060200180831161127c57829003601f168201915b505050505081526020019060010190611201565b50505050611d29565b8460090154611e89565b505050565b6000803390506112e684828560405180602001604052806000815250611b43565b949350505050565b60008033905061133686828787878080601f016020809104026020016040519081016040528093929190818152602001838380828437600092019190915250611b4392505050565b9695505050505050565b600061134e85858585611e97565b95945050505050565b61135f6119f1565b6001600160a01b0316336001600160a01b03161461138f5760405162461bcd60e51b8152600401610894906139d0565b6108a681611eff565b6004805460008381526005602052604080822054905163d45c443560e01b8152938401529182916001600160a01b03169063d45c44359060240160206040518083038186803b1580156113ea57600080fd5b505afa1580156113fe573d6000803e3d6000fd5b505050506040513d601f19601f82011682018060405250810190611422919061359d565b9050806001146114325780611435565b60005b9392505050565b60008181526001602081815260408084208151928301909152909101546001600160401b031690819052610c74565b6000848484846040516020016114849493929190613857565b60408051601f19818403018152919052805160209091012095945050505050565b6004546001600160a01b031690565b60006114c4338787878787611f68565b61133686866114d38787611d29565b85611340565b60008181526002602090815260409182902060018101805484518185028101850190955280855291936112c09390929083018282801561154257602002820191906000526020600020905b81546001600160a01b03168152600190910190602001808311611524575b50505050508260020180548060200260200160405190810160405280929190818152602001828054801561159557602002820191906000526020600020905b815481526020019060010190808311611581575b505050505061173d84600301805480602002602001604051908101604052809291908181526020016000905b8282101561166d5783829060005260206000200180546115e090613c6d565b80601f016020809104026020016040519081016040528092919081815260200182805461160c90613c6d565b80156116595780601f1061162e57610100808354040283529160200191611659565b820191906000526020600020905b81548152906001019060200180831161163c57829003601f168201915b5050505050815260200190600101906115c1565b50505060048701805460408051602080840282018101909252828152935060009084015b828210156112ad5783829060005260206000200180546116b090613c6d565b80601f01602080910402602001604051908101604052809291908181526020018280546116dc90613c6d565b80156117295780601f106116fe57610100808354040283529160200191611729565b820191906000526020600020905b81548152906001019060200180831161170c57829003601f168201915b505050505081526020019060010190611691565b846009015461093b565b60006114358383612025565b6000610856826120ca565b60008181526002602090815260409182902060018101805484518185028101850190955280855291936112c0939092908301828280156117c757602002820191906000526020600020905b81546001600160a01b031681526001909101906020018083116117a9575b50505050508260020180548060200260200160405190810160405280929190818152602001828054801561181a57602002820191906000526020600020905b815481526020019060010190808311611806575b50505050506119c284600301805480602002602001604051908101604052809291908181526020016000905b828210156118f257838290600052602060002001805461186590613c6d565b80601f016020809104026020016040519081016040528092919081815260200182805461189190613c6d565b80156118de5780601f106118b3576101008083540402835291602001916118de565b820191906000526020600020905b8154815290600101906020018083116118c157829003601f168201915b505050505081526020019060010190611846565b50505060048701805460408051602080840282018101909252828152935060009084015b828210156112ad57838290600052602060002001805461193590613c6d565b80601f016020809104026020016040519081016040528092919081815260200182805461196190613c6d565b80156119ae5780601f10611983576101008083540402835291602001916119ae565b820191906000526020600020905b81548152906001019060200180831161199157829003601f168201915b505050505081526020019060010190611916565b8460090154610b79565b60006001600160e01b03198216636e665ced60e01b148061085657506108568261217d565b6000610b746114a5565b6064811115611a7e5760405162461bcd60e51b815260206004820152604360248201527f476f7665726e6f72566f74657351756f72756d4672616374696f6e3a2071756f60448201527f72756d4e756d657261746f72206f7665722071756f72756d44656e6f6d696e616064820152623a37b960e91b608482015260a401610894565b600380549082905560408051828152602081018490527f0553476bf02ef2726e8ce5ced78d63e26e602e4a2257b1f559418e24b4633997910160405180910390a15050565b611ad085858585856121b2565b5050505050565b6000610856611ae4612225565b8360405161190160f01b6020820152602281018390526042810182905260009060620160405160208183030381529060405280519060200120905092915050565b6000806000611b3687878787612318565b91509150610c42816123fb565b6000848152600160208190526040822090611b5d87610fa8565b6007811115611b6e57611b6e613cd3565b14611bc75760405162461bcd60e51b815260206004820152602360248201527f476f7665726e6f723a20766f7465206e6f742063757272656e746c792061637460448201526269766560e81b6064820152608401610894565b604080516020810190915281546001600160401b031690819052600090611bef908790611747565b9050611bfd878787846125b1565b856001600160a01b03167fb8e138887d0aa13bab447e82de9d5c1777041ecd21ca36ba824ff1e6c07ddda488878488604051611c3c9493929190613b27565b60405180910390a29695505050505050565b600080611c5a83612751565b90506004816007811115611c7057611c70613cd3565b14611c7b5792915050565b60008381526005602052604090205480611c96575092915050565b60048054604051632ab0f52960e01b81529182018390526001600160a01b031690632ab0f5299060240160206040518083038186803b158015611cd857600080fd5b505afa158015611cec573d6000803e3d6000fd5b505050506040513d601f19601f82011682018060405250810190611d10919061357b565b15611d1f575060079392505050565b5060059392505050565b6060600082516001600160401b03811115611d4657611d46613cff565b604051908082528060200260200182016040528015611d7957816020015b6060815260200190600190039081611d645790505b50905060005b8451811015611e8157848181518110611d9a57611d9a613ce9565b602002602001015151600014611e3857848181518110611dbc57611dbc613ce9565b6020026020010151848281518110611dd657611dd6613ce9565b6020026020010151604051602401611dee9190613995565b60408051601f198184030181529082905291611e099161383b565b6040519081900390206020820180516001600160e01b03166001600160e01b0319909216919091179052611e53565b838181518110611e4a57611e4a613ce9565b60200260200101515b828281518110611e6557611e65613ce9565b602002602001018190525080611e7a90613ca2565b9050611d7f565b509392505050565b600061134e858585856128b7565b6000611ef333868686516001600160401b03811115611eb857611eb8613cff565b604051908082528060200260200182016040528015611eeb57816020015b6060815260200190600190039081611ed65790505b508787611f68565b61134e8585858561295f565b600454604080516001600160a01b03928316815291831660208301527f08f74ea46ef7894f65eabfb5e6e695de773a000b47c529ab559178069b226401910160405180910390a1600480546001600160a01b0319166001600160a01b0392909216919091179055565b805160208201206000611f868787611f808888611d29565b8561146b565b600081815260026020526040902060098101549192509061201a5780546001600160a01b0319166001600160a01b038a161781558751611fcf90600183019060208b0190612e69565b508651611fe590600283019060208a0190612eca565b508551611ffb9060038301906020890190612f05565b5084516120119060048301906020880190612f5e565b50600981018390555b505050505050505050565b604051630748d63560e31b81526001600160a01b038381166004830152602482018390526000917f000000000000000000000000000000000000000000000000000000000000000090911690633a46b1a89060440160206040518083038186803b15801561209257600080fd5b505afa1580156120a6573d6000803e3d6000fd5b505050506040513d601f19601f82011682018060405250810190611435919061359d565b60006064600354604051632394e7a360e21b8152600481018590527f00000000000000000000000000000000000000000000000000000000000000006001600160a01b031690638e539e8c9060240160206040518083038186803b15801561213157600080fd5b505afa158015612145573d6000803e3d6000fd5b505050506040513d601f19601f82011682018060405250810190612169919061359d565b6121739190613c07565b6108569190613be5565b60006001600160e01b0319821663bf26d89760e01b148061085657506301ffc9a760e01b6001600160e01b0319831614610856565b6004805460405163e38335e560e01b81526001600160a01b039091169163e38335e59134916121ec918991899189916000918a91016138a2565b6000604051808303818588803b15801561220557600080fd5b505af1158015612219573d6000803e3d6000fd5b50505050505050505050565b60007f000000000000000000000000000000000000000000000000000000000000000046141561227457507f000000000000000000000000000000000000000000000000000000000000000090565b50604080517f00000000000000000000000000000000000000000000000000000000000000006020808301919091527f0000000000000000000000000000000000000000000000000000000000000000828401527f000000000000000000000000000000000000000000000000000000000000000060608301524660808301523060a0808401919091528351808403909101815260c0909201909252805191012090565b6000806fa2a8918ca85bafe22016d0b997e4df60600160ff1b0383111561234557506000905060036123f2565b8460ff16601b1415801561235d57508460ff16601c14155b1561236e57506000905060046123f2565b6040805160008082526020820180845289905260ff881692820192909252606081018690526080810185905260019060a0016020604051602081039080840390855afa1580156123c2573d6000803e3d6000fd5b5050604051601f1901519150506001600160a01b0381166123eb576000600192509250506123f2565b9150600090505b94509492505050565b600081600481111561240f5761240f613cd3565b14156124185750565b600181600481111561242c5761242c613cd3565b14156124755760405162461bcd60e51b815260206004820152601860248201527745434453413a20696e76616c6964207369676e617475726560401b6044820152606401610894565b600281600481111561248957612489613cd3565b14156124d75760405162461bcd60e51b815260206004820152601f60248201527f45434453413a20696e76616c6964207369676e6174757265206c656e677468006044820152606401610894565b60038160048111156124eb576124eb613cd3565b14156125445760405162461bcd60e51b815260206004820152602260248201527f45434453413a20696e76616c6964207369676e6174757265202773272076616c604482015261756560f01b6064820152608401610894565b600481600481111561255857612558613cd3565b14156108a65760405162461bcd60e51b815260206004820152602260248201527f45434453413a20696e76616c6964207369676e6174757265202776272076616c604482015261756560f01b6064820152608401610894565b60008481526002602090815260408083206001600160a01b038716845260088101909252909120805460ff16156126405760405162461bcd60e51b815260206004820152602d60248201527f476f7665726e6f72436f6d7061746962696c697479427261766f3a20766f746560448201526c08185b1c9958591e4818d85cdd609a1b6064820152608401610894565b805460ff85166101000261ffff19909116176001178155612660836129fd565b81546001600160601b0391909116620100000262010000600160701b031990911617815560ff84166126ab57828260060160008282546126a09190613ba2565b909155506127499050565b60ff8416600114156126cb57828260050160008282546126a09190613ba2565b60ff8416600214156126eb57828260070160008282546126a09190613ba2565b60405162461bcd60e51b815260206004820152602d60248201527f476f7665726e6f72436f6d7061746962696c697479427261766f3a20696e766160448201526c6c696420766f7465207479706560981b6064820152608401610894565b505050505050565b6000818152600160208181526040808420815160a08101835281546001600160401b0390811660808301908152825283518086018552958301541685529283019390935260029092015460ff808216158015948401949094526101009091041615156060820152906127c65750600792915050565b8060600151156127d95750600292915050565b805151436001600160401b0390911611156127f75750600092915050565b602081015151436001600160401b0390911611156128185750600192915050565b6128258160200151612a69565b156128695761283383612a98565b8015612855575060008381526002602052604090206006810154600590910154115b612860576003611435565b60049392505050565b60405162461bcd60e51b815260206004820152601d60248201527f476f7665726e6f723a20756e6b6e6f776e2070726f706f73616c2069640000006044820152606401610894565b50919050565b6000806128c686868686612abf565b6000818152600560205260409020549091501561134e57600480546000838152600560205260409081902054905163c4d252f560e01b8152928301526001600160a01b03169063c4d252f590602401600060405180830381600087803b15801561292f57600080fd5b505af1158015612943573d6000803e3d6000fd5b5050506000828152600560205260408120555095945050505050565b60008061297133610736600143613c26565b10156129f15760405162461bcd60e51b815260206004820152604360248201527f476f7665726e6f72436f6d7061746962696c697479427261766f3a2070726f7060448201527f6f73657220766f7465732062656c6f772070726f706f73616c207468726573686064820152621bdb1960ea1b608482015260a401610894565b61134e85858585612bcb565b60006001600160601b03821115612a655760405162461bcd60e51b815260206004820152602660248201527f53616665436173743a2076616c756520646f65736e27742066697420696e203960448201526536206269747360d01b6064820152608401610894565b5090565b6000612a7e82516001600160401b0316151590565b801561085657505051436001600160401b03909116111590565b60008181526002602052604081206005810154612ab761075685610c4c565b109392505050565b600080612ace8686868661146b565b90506000612adb82610fa8565b90506002816007811115612af157612af1613cd3565b14158015612b1157506006816007811115612b0e57612b0e613cd3565b14155b8015612b2f57506007816007811115612b2c57612b2c613cd3565b14155b612b7b5760405162461bcd60e51b815260206004820152601d60248201527f476f7665726e6f723a2070726f706f73616c206e6f74206163746976650000006044820152606401610894565b60008281526001602052604090819020600201805461ff001916610100179055517f789cf55be980739dad1d0699b93b58e806b51c9d96619bfa8fe0a28abaa7b30c90610b529084815260200190565b600080612be1868686868051906020012061146b565b90508451865114612c045760405162461bcd60e51b815260040161089490613a02565b8351865114612c255760405162461bcd60e51b815260040161089490613a02565b6000865111612c715760405162461bcd60e51b815260206004820152601860248201527711dbdd995c9b9bdc8e88195b5c1d1e481c1c9bdc1bdcd85b60421b6044820152606401610894565b600081815260016020908152604091829020825191820190925281546001600160401b03169081905215612cf15760405162461bcd60e51b815260206004820152602160248201527f476f7665726e6f723a2070726f706f73616c20616c72656164792065786973746044820152607360f81b6064820152608401610894565b6000612cfe6119af612de3565b612d0743612de3565b612d119190613bba565b90506000612d2061b3cb612de3565b612d2a9083613bba565b9050612d368383612e4b565b612d436001840182612e4b565b7f7d84a6263ae0d98d3329bd7b46bb4e8d6f98cd35a7adb45c274c8b7fd5ebd5e084338b8b8d516001600160401b03811115612d8157612d81613cff565b604051908082528060200260200182016040528015612db457816020015b6060815260200190600190039081612d9f5790505b508c88888e604051612dce99989796959493929190613a84565b60405180910390a15091979650505050505050565b60006001600160401b03821115612a655760405162461bcd60e51b815260206004820152602660248201527f53616665436173743a2076616c756520646f65736e27742066697420696e203660448201526534206269747360d01b6064820152608401610894565b815467ffffffffffffffff19166001600160401b0391909116179055565b828054828255906000526020600020908101928215612ebe579160200282015b82811115612ebe57825182546001600160a01b0319166001600160a01b03909116178255602090920191600190910190612e89565b50612a65929150612fb7565b828054828255906000526020600020908101928215612ebe579160200282015b82811115612ebe578251825591602001919060010190612eea565b828054828255906000526020600020908101928215612f52579160200282015b82811115612f525782518051612f42918491602090910190612fcc565b5091602001919060010190612f25565b50612a6592915061303f565b828054828255906000526020600020908101928215612fab579160200282015b82811115612fab5782518051612f9b918491602090910190612fcc565b5091602001919060010190612f7e565b50612a6592915061305c565b5b80821115612a655760008155600101612fb8565b828054612fd890613c6d565b90600052602060002090601f016020900481019282612ffa5760008555612ebe565b82601f1061301357805160ff1916838001178555612ebe565b82800160010185558215612ebe5791820182811115612ebe578251825591602001919060010190612eea565b80821115612a655760006130538282613079565b5060010161303f565b80821115612a655760006130708282613079565b5060010161305c565b50805461308590613c6d565b6000825580601f10613095575050565b601f0160209004906000526020600020908101906108a69190612fb7565b60006001600160401b038311156130cc576130cc613cff565b6130df601f8401601f1916602001613b4f565b90508281528383830111156130f357600080fd5b828260208301376000602084830101529392505050565b600082601f83011261311b57600080fd5b8135602061313061312b83613b7f565b613b4f565b80838252828201915082860187848660051b890101111561315057600080fd5b60005b8581101561317857813561316681613d15565b84529284019290840190600101613153565b5090979650505050505050565b600082601f83011261319657600080fd5b813560206131a661312b83613b7f565b80838252828201915082860187848660051b89010111156131c657600080fd5b60005b858110156131785781356001600160401b038111156131e757600080fd5b8801603f81018a136131f857600080fd5b6132098a87830135604084016130b3565b85525092840192908401906001016131c9565b600082601f83011261322d57600080fd5b8135602061323d61312b83613b7f565b80838252828201915082860187848660051b890101111561325d57600080fd5b6000805b8681101561329f5782356001600160401b0381111561327e578283fd5b61328c8b88838d010161330d565b8652509385019391850191600101613261565b509198975050505050505050565b600082601f8301126132be57600080fd5b813560206132ce61312b83613b7f565b80838252828201915082860187848660051b89010111156132ee57600080fd5b60005b85811015613178578135845292840192908401906001016132f1565b600082601f83011261331e57600080fd5b611435838335602085016130b3565b803560ff8116811461333e57600080fd5b919050565b6000806040838503121561335657600080fd5b823561336181613d15565b946020939093013593505050565b6000806000806080858703121561338557600080fd5b84356001600160401b038082111561339c57600080fd5b6133a88883890161310a565b955060208701359150808211156133be57600080fd5b6133ca888389016132ad565b945060408701359150808211156133e057600080fd5b506133ed87828801613185565b949793965093946060013593505050565b6000806000806080858703121561341457600080fd5b84356001600160401b038082111561342b57600080fd5b6134378883890161310a565b9550602087013591508082111561344d57600080fd5b613459888389016132ad565b9450604087013591508082111561346f57600080fd5b61347b88838901613185565b9350606087013591508082111561349157600080fd5b5061349e8782880161330d565b91505092959194509250565b600080600080600060a086880312156134c257600080fd5b85356001600160401b03808211156134d957600080fd5b6134e589838a0161310a565b965060208801359150808211156134fb57600080fd5b61350789838a016132ad565b9550604088013591508082111561351d57600080fd5b61352989838a0161321c565b9450606088013591508082111561353f57600080fd5b61354b89838a01613185565b9350608088013591508082111561356157600080fd5b5061356e8882890161330d565b9150509295509295909350565b60006020828403121561358d57600080fd5b8151801515811461143557600080fd5b6000602082840312156135af57600080fd5b5051919050565b6000602082840312156135c857600080fd5b81356001600160e01b03198116811461143557600080fd5b6000602082840312156135f257600080fd5b813561143581613d15565b60006020828403121561360f57600080fd5b5035919050565b6000806040838503121561362957600080fd5b82359150602083013561363b81613d15565b809150509250929050565b6000806040838503121561365957600080fd5b823591506136696020840161332d565b90509250929050565b6000806000806060858703121561368857600080fd5b843593506136986020860161332d565b925060408501356001600160401b03808211156136b457600080fd5b818701915087601f8301126136c857600080fd5b8135818111156136d757600080fd5b8860208285010111156136e957600080fd5b95989497505060200194505050565b600080600080600060a0868803121561371057600080fd5b853594506137206020870161332d565b935061372e6040870161332d565b94979396509394606081013594506080013592915050565b600081518084526020808501945080840160005b8381101561377f5781516001600160a01b03168752958201959082019060010161375a565b509495945050505050565b600081518084526020808501808196508360051b8101915082860160005b858110156137d25782840389526137c084835161380f565b988501989350908401906001016137a8565b5091979650505050505050565b600081518084526020808501945080840160005b8381101561377f578151875295820195908201906001016137f3565b60008151808452613827816020860160208601613c3d565b601f01601f19169290920160200192915050565b6000825161384d818460208701613c3d565b9190910192915050565b60808152600061386a6080830187613746565b828103602084015261387c81876137df565b90508281036040840152613890818661378a565b91505082606083015295945050505050565b60a0815260006138b560a0830188613746565b82810360208401526138c781886137df565b905082810360408401526138db818761378a565b60608401959095525050608001529392505050565b60c08152600061390360c0830189613746565b828103602084015261391581896137df565b90508281036040840152613929818861378a565b60608401969096525050608081019290925260a0909101529392505050565b60808152600061395b6080830187613746565b828103602084015261396d81876137df565b90508281036040840152613981818661378a565b90508281036060840152610f9d818561378a565b602081526000611435602083018461380f565b60208101600883106139ca57634e487b7160e01b600052602160045260246000fd5b91905290565b602080825260189082015277476f7665726e6f723a206f6e6c79476f7665726e616e636560401b604082015260600190565b60208082526021908201527f476f7665726e6f723a20696e76616c69642070726f706f73616c206c656e67746040820152600d60fb1b606082015260800190565b60208082526021908201527f476f7665726e6f723a2070726f706f73616c206e6f74207375636365737366756040820152601b60fa1b606082015260800190565b8981526001600160a01b038916602082015261012060408201819052600090613aaf8382018b613746565b90508281036060840152613ac3818a6137df565b90508281036080840152613ad7818961378a565b905082810360a0840152613aeb818861378a565b6001600160401b0387811660c0860152861660e08501528381036101008501529050613b17818561380f565b9c9b505050505050505050505050565b84815260ff84166020820152826040820152608060608201526000611336608083018461380f565b604051601f8201601f191681016001600160401b0381118282101715613b7757613b77613cff565b604052919050565b60006001600160401b03821115613b9857613b98613cff565b5060051b60200190565b60008219821115613bb557613bb5613cbd565b500190565b60006001600160401b03808316818516808303821115613bdc57613bdc613cbd565b01949350505050565b600082613c0257634e487b7160e01b600052601260045260246000fd5b500490565b6000816000190483118215151615613c2157613c21613cbd565b500290565b600082821015613c3857613c38613cbd565b500390565b60005b83811015613c58578181015183820152602001613c40565b83811115613c67576000848401525b50505050565b600181811c90821680613c8157607f821691505b602082108114156128b157634e487b7160e01b600052602260045260246000fd5b6000600019821415613cb657613cb6613cbd565b5060010190565b634e487b7160e01b600052601160045260246000fd5b634e487b7160e01b600052602160045260246000fd5b634e487b7160e01b600052603260045260246000fd5b634e487b7160e01b600052604160045260246000fd5b6001600160a01b03811681146108a657600080fdfea2646970667358221220412a1f8aae9c389ca2ed50d4496cc905ca0d6f7a91c58d834ccd42d2775e275e64736f6c63430008070033",
  "immutableReferences": {
    "3657": [
      {
        "length": 32,
        "start": 1901
      },
      {
        "length": 32,
        "start": 8270
      },
      {
        "length": 32,
        "start": 8423
      }
    ],
    "6512": [
      {
        "length": 32,
        "start": 8786
      }
    ],
    "6514": [
      {
        "length": 32,
        "start": 8745
      }
    ],
    "6516": [
      {
        "length": 32,
        "start": 8869
      }
    ],
    "6518": [
      {
        "length": 32,
        "start": 8906
      }
    ],
    "6520": [
      {
        "length": 32,
        "start": 8827
      }
    ]
  },
  "source": "pragma solidity ^0.8.2;\r\n\r\nimport \"@openzeppelin/contracts/governance/Governor.sol\";\r\nimport \"@openzeppelin/contracts/governance/compatibility/GovernorCompatibilityBravo.sol\";\r\nimport \"@openzeppelin/contracts/governance/extensions/GovernorVotes.sol\";\r\nimport \"@openzeppelin/contracts/governance/extensions/GovernorVotesQuorumFraction.sol\";\r\nimport \"@openzeppelin/contracts/governance/extensions/GovernorTimelockControl.sol\";\r\n\r\ncontract VerifierGovernor is Governor, GovernorCompatibilityBravo, GovernorVotes, GovernorVotesQuorumFraction, GovernorTimelockControl {\r\n    constructor(ERC20Votes  _token, TimelockController _timelock) \r\n        Governor(\"VerifierGovernor\") \r\n        GovernorVotes(_token)\r\n        GovernorVotesQuorumFraction(4)\r\n        GovernorTimelockControl(_timelock)\r\n    {}\r\n\r\n    function votingDelay() public pure override returns (uint256) {\r\n        return 6575;  // 1 day\r\n    }\r\n\r\n    function votingPeriod() public pure override returns (uint256) {\r\n        return 46027; // 1 week\r\n    }\r\n\r\n    function proposalThreshold() public pure override returns (uint256) {\r\n        return 0;\r\n    }\r\n\r\n    function quorum(uint256 blockNumber)\r\n        public\r\n        view\r\n        override(IGovernor, GovernorVotesQuorumFraction)\r\n        returns (uint256)\r\n    {\r\n        return super.quorum(blockNumber);\r\n    }\r\n\r\n    function getVotes(address account, uint256 blockNumber)\r\n        public\r\n        view\r\n        override(IGovernor, GovernorVotes)\r\n        returns (uint256)\r\n    {\r\n        return super.getVotes(account, blockNumber);\r\n    }\r\n\r\n    function state(uint256 proposalId)\r\n        public\r\n        view\r\n        override(Governor, IGovernor, GovernorTimelockControl)\r\n        returns (ProposalState)\r\n    {\r\n        return super.state(proposalId);\r\n    }\r\n\r\n    function propose(address[] memory targets, uint256[] memory values, bytes[] memory calldatas, string memory description)\r\n        public\r\n        override(Governor, GovernorCompatibilityBravo, IGovernor)\r\n        returns (uint256)\r\n    {\r\n        return super.propose(targets, values, calldatas, description);\r\n    }\r\n\r\n    function _execute(uint256 proposalId, address[] memory targets, uint256[] memory values, bytes[] memory calldatas, bytes32 descriptionHash)\r\n        internal\r\n        override(Governor, GovernorTimelockControl)\r\n    {\r\n        super._execute(proposalId, targets, values, calldatas, descriptionHash);\r\n    }\r\n\r\n    function _cancel(address[] memory targets, uint256[] memory values, bytes[] memory calldatas, bytes32 descriptionHash)\r\n        internal\r\n        override(Governor, GovernorTimelockControl)\r\n        returns (uint256)\r\n    {\r\n        return super._cancel(targets, values, calldatas, descriptionHash);\r\n    }\r\n\r\n    function _executor()\r\n        internal\r\n        view\r\n        override(Governor, GovernorTimelockControl)\r\n        returns (address)\r\n    {\r\n        return super._executor();\r\n    }\r\n\r\n    function supportsInterface(bytes4 interfaceId)\r\n        public\r\n        view\r\n        override(Governor, IERC165, GovernorTimelockControl)\r\n        returns (bool)\r\n    {\r\n        return super.supportsInterface(interfaceId);\r\n    }\r\n\r\n}",
  "sourcePath": "C:\\learn\\ChainLink\\governance\\contracts\\VerifierGovernor.sol",
  "compiler": {
    "name": "solc",
    "version": "0.8.7+commit.e28d00a7.Emscripten.clang"
  },
  "schemaVersion": "3.4.3",
  "updatedAt": "2021-11-13T21:47:46.781Z",
  "networkType": "ethereum",
  "devdoc": {
    "kind": "dev",
    "methods": {
      "COUNTING_MODE()": {
        "details": "A description of the possible `support` values for {castVote} and the way these votes are counted, meant to be consumed by UIs to show correct vote options and interpret the results. The string is a URL-encoded sequence of key-value pairs that each describe one aspect, for example `support=bravo&quorum=for,abstain`. There are 2 standard keys: `support` and `quorum`. - `support=bravo` refers to the vote options 0 = For, 1 = Against, 2 = Abstain, as in `GovernorBravo`. - `quorum=bravo` means that only For votes are counted towards quorum. - `quorum=for,abstain` means that both For and Abstain votes are counted towards quorum. NOTE: The string can be decoded by the standard https://developer.mozilla.org/en-US/docs/Web/API/URLSearchParams[`URLSearchParams`] JavaScript class."
      },
      "cancel(uint256)": {
        "details": "Cancels a proposal only if sender is the proposer, or proposer delegates dropped below proposal threshold."
      },
      "castVote(uint256,uint8)": {
        "details": "See {IGovernor-castVote}."
      },
      "castVoteBySig(uint256,uint8,uint8,bytes32,bytes32)": {
        "details": "See {IGovernor-castVoteBySig}."
      },
      "castVoteWithReason(uint256,uint8,string)": {
        "details": "See {IGovernor-castVoteWithReason}."
      },
      "execute(address[],uint256[],bytes[],bytes32)": {
        "details": "See {IGovernor-execute}."
      },
      "execute(uint256)": {
        "details": "See {IGovernorCompatibilityBravo-execute}."
      },
      "getActions(uint256)": {
        "details": "See {IGovernorCompatibilityBravo-getActions}."
      },
      "getReceipt(uint256,address)": {
        "details": "See {IGovernorCompatibilityBravo-getReceipt}."
      },
      "hasVoted(uint256,address)": {
        "details": "See {IGovernor-hasVoted}."
      },
      "hashProposal(address[],uint256[],bytes[],bytes32)": {
        "details": "See {IGovernor-hashProposal}. The proposal id is produced by hashing the RLC encoded `targets` array, the `values` array, the `calldatas` array and the descriptionHash (bytes32 which itself is the keccak256 hash of the description string). This proposal id can be produced from the proposal data which is part of the {ProposalCreated} event. It can even be computed in advance, before the proposal is submitted. Note that the chainId and the governor address are not part of the proposal id computation. Consequently, the same proposal (with same operation and same description) will have the same id if submitted on multiple governors accross multiple networks. This also means that in order to execute the same operation twice (on the same governor) the proposer will have to change the description in order to avoid proposal id conflicts."
      },
      "name()": {
        "details": "See {IGovernor-name}."
      },
      "proposalDeadline(uint256)": {
        "details": "See {IGovernor-proposalDeadline}."
      },
      "proposalEta(uint256)": {
        "details": "Public accessor to check the eta of a queued proposal"
      },
      "proposalSnapshot(uint256)": {
        "details": "See {IGovernor-proposalSnapshot}."
      },
      "proposalThreshold()": {
        "details": "Part of the Governor Bravo's interface: _\"The number of votes required in order for a voter to become a proposer\"_."
      },
      "proposals(uint256)": {
        "details": "See {IGovernorCompatibilityBravo-proposals}."
      },
      "propose(address[],uint256[],string[],bytes[],string)": {
        "details": "See {IGovernorCompatibilityBravo-propose}."
      },
      "queue(address[],uint256[],bytes[],bytes32)": {
        "details": "Function to queue a proposal to the timelock."
      },
      "queue(uint256)": {
        "details": "See {IGovernorCompatibilityBravo-queue}."
      },
      "quorumVotes()": {
        "details": "See {IGovernorCompatibilityBravo-quorumVotes}."
      },
      "timelock()": {
        "details": "Public accessor to check the address of the timelock"
      },
      "updateTimelock(address)": {
        "details": "Public endpoint to update the underlying timelock instance. Restricted to the timelock itself, so updates must be proposed, scheduled and executed using the {Governor} workflow."
      },
      "version()": {
        "details": "See {IGovernor-version}."
      },
      "votingDelay()": {
        "details": "delay, in number of block, between the proposal is created and the vote starts. This can be increassed to leave time for users to buy voting power, of delegate it, before the voting of a proposal starts."
      },
      "votingPeriod()": {
        "details": "delay, in number of blocks, between the vote start and vote ends. Note: the {votingDelay} can delay the start of the vote. This must be considered when setting the voting duration compared to the voting delay."
      }
    },
    "version": 1
  },
  "userdoc": {
    "kind": "user",
    "methods": {
      "COUNTING_MODE()": {
        "notice": "module:voting"
      },
      "votingDelay()": {
        "notice": "module:user-config"
      },
      "votingPeriod()": {
        "notice": "module:user-config"
      }
    },
    "version": 1
  }
}