{
  "contractName": "VerifiedDB",
  "abi": [
    {
      "inputs": [],
      "stateMutability": "nonpayable",
      "type": "constructor"
    },
    {
      "anonymous": false,
      "inputs": [
        {
          "indexed": true,
          "internalType": "address",
          "name": "previousOwner",
          "type": "address"
        },
        {
          "indexed": true,
          "internalType": "address",
          "name": "newOwner",
          "type": "address"
        }
      ],
      "name": "OwnershipTransferred",
      "type": "event"
    },
    {
      "inputs": [],
      "name": "owner",
      "outputs": [
        {
          "internalType": "address",
          "name": "",
          "type": "address"
        }
      ],
      "stateMutability": "view",
      "type": "function",
      "constant": true
    },
    {
      "inputs": [],
      "name": "renounceOwnership",
      "outputs": [],
      "stateMutability": "nonpayable",
      "type": "function"
    },
    {
      "inputs": [
        {
          "internalType": "address",
          "name": "newOwner",
          "type": "address"
        }
      ],
      "name": "transferOwnership",
      "outputs": [],
      "stateMutability": "nonpayable",
      "type": "function"
    },
    {
      "inputs": [
        {
          "internalType": "uint256",
          "name": "_hash",
          "type": "uint256"
        },
        {
          "components": [
            {
              "internalType": "string",
              "name": "data",
              "type": "string"
            },
            {
              "internalType": "uint256",
              "name": "confidence",
              "type": "uint256"
            }
          ],
          "internalType": "struct VerifiedEntity",
          "name": "_newEntity",
          "type": "tuple"
        }
      ],
      "name": "addVerifiedEntity",
      "outputs": [],
      "stateMutability": "nonpayable",
      "type": "function"
    },
    {
      "inputs": [
        {
          "internalType": "uint256",
          "name": "_hash",
          "type": "uint256"
        }
      ],
      "name": "getVerifiedEntity",
      "outputs": [
        {
          "components": [
            {
              "internalType": "string",
              "name": "data",
              "type": "string"
            },
            {
              "internalType": "uint256",
              "name": "confidence",
              "type": "uint256"
            }
          ],
          "internalType": "struct VerifiedEntity",
          "name": "",
          "type": "tuple"
        }
      ],
      "stateMutability": "view",
      "type": "function",
      "constant": true
    }
  ],
  "bytecode": "0x608060405234801561001057600080fd5b5061001a3361001f565b61006f565b600080546001600160a01b038381166001600160a01b0319831681178455604051919092169283917f8be0079c531659141344cd1fd0a4f28419497f9722a3daafe3b4186f6b6457e09190a35050565b6105cd8061007e6000396000f3fe608060405234801561001057600080fd5b50600436106100575760003560e01c8063715018a61461005c5780637466dd0f146100665780638da5cb5b146100795780639e7e3baf1461009e578063f2fde38b146100be575b600080fd5b6100646100d1565b005b610064610074366004610427565b610115565b610081610177565b6040516001600160a01b0390911681526020015b60405180910390f35b6100b16100ac36600461040e565b610186565b60405161009591906104a9565b6100646100cc3660046103de565b610255565b336100da610177565b6001600160a01b0316146101095760405162461bcd60e51b815260040161010090610474565b60405180910390fd5b61011360006102f5565b565b3361011e610177565b6001600160a01b0316146101445760405162461bcd60e51b815260040161010090610474565b600082815260016020526040902061015c828061050f565b610167918391610345565b5060209091013560019091015550565b6000546001600160a01b031690565b6040805180820190915260608152600060208201526000828152600160205260409081902081518083019092528054829082906101c29061055c565b80601f01602080910402602001604051908101604052809291908181526020018280546101ee9061055c565b801561023b5780601f106102105761010080835404028352916020019161023b565b820191906000526020600020905b81548152906001019060200180831161021e57829003601f168201915b505050505081526020016001820154815250509050919050565b3361025e610177565b6001600160a01b0316146102845760405162461bcd60e51b815260040161010090610474565b6001600160a01b0381166102e95760405162461bcd60e51b815260206004820152602660248201527f4f776e61626c653a206e6577206f776e657220697320746865207a65726f206160448201526564647265737360d01b6064820152608401610100565b6102f2816102f5565b50565b600080546001600160a01b038381166001600160a01b0319831681178455604051919092169283917f8be0079c531659141344cd1fd0a4f28419497f9722a3daafe3b4186f6b6457e09190a35050565b8280546103519061055c565b90600052602060002090601f01602090048101928261037357600085556103b9565b82601f1061038c5782800160ff198235161785556103b9565b828001600101855582156103b9579182015b828111156103b957823582559160200191906001019061039e565b506103c59291506103c9565b5090565b5b808211156103c557600081556001016103ca565b6000602082840312156103f057600080fd5b81356001600160a01b038116811461040757600080fd5b9392505050565b60006020828403121561042057600080fd5b5035919050565b6000806040838503121561043a57600080fd5b8235915060208301356001600160401b0381111561045757600080fd5b83016040818603121561046957600080fd5b809150509250929050565b6020808252818101527f4f776e61626c653a2063616c6c6572206973206e6f7420746865206f776e6572604082015260600190565b600060208083528351604082850152805180606086015260005b818110156104df578281018401518682016080015283016104c3565b818111156104f1576000608083880101525b50949091015160408401525050601f91909101601f19160160800190565b6000808335601e1984360301811261052657600080fd5b8301803591506001600160401b0382111561054057600080fd5b60200191503681900382131561055557600080fd5b9250929050565b600181811c9082168061057057607f821691505b6020821081141561059157634e487b7160e01b600052602260045260246000fd5b5091905056fea2646970667358221220bb90d16b7646bc07dec9e518dd9af0fff7adb98dbfceae859493328d16d3009664736f6c63430008070033",
  "immutableReferences": {},
  "source": "pragma solidity ^0.8.7;\r\n\r\n\r\nimport \"@openzeppelin/contracts/access/Ownable.sol\";\r\n\r\n\r\nstruct VerifiedEntity { // temporary data structure to hold data passed voting\r\n    string data;\r\n    uint confidence;\r\n}\r\n\r\ncontract VerifiedDB is Ownable { \r\n\r\n    mapping (uint256 => VerifiedEntity) private _verifiedEntity; // Todo: use decentrlized DB instead (like FileCoin / IPFS) instead of savig it locally\r\n\r\n    constructor() {}\r\n\r\n    function addVerifiedEntity(uint256 _hash, VerifiedEntity calldata _newEntity) public onlyOwner {\r\n        VerifiedEntity storage newEntity = _verifiedEntity[_hash];\r\n        newEntity.data = _newEntity.data;\r\n        newEntity.confidence = _newEntity.confidence;\r\n    }\r\n\r\n    function getVerifiedEntity(uint256 _hash) public view returns (VerifiedEntity memory) {\r\n        return _verifiedEntity[_hash];\r\n    }\r\n}",
  "sourcePath": "C:\\learn\\ChainLink\\governance\\contracts\\VerifierDB.sol",
  "compiler": {
    "name": "solc",
    "version": "0.8.7+commit.e28d00a7.Emscripten.clang"
  },
  "schemaVersion": "3.4.3",
  "updatedAt": "2021-11-13T21:47:46.843Z",
  "networkType": "ethereum",
  "devdoc": {
    "kind": "dev",
    "methods": {
      "owner()": {
        "details": "Returns the address of the current owner."
      },
      "renounceOwnership()": {
        "details": "Leaves the contract without owner. It will not be possible to call `onlyOwner` functions anymore. Can only be called by the current owner. NOTE: Renouncing ownership will leave the contract without an owner, thereby removing any functionality that is only available to the owner."
      },
      "transferOwnership(address)": {
        "details": "Transfers ownership of the contract to a new account (`newOwner`). Can only be called by the current owner."
      }
    },
    "version": 1
  },
  "userdoc": {
    "kind": "user",
    "methods": {},
    "version": 1
  }
}